{
  "abi": [
    {
      "inputs": [
        {
          "internalType": "contract MyDelegateDeployer",
          "name": "_delegateDeployer",
          "type": "address"
        },
        {
          "internalType": "contract IJBOperatorStore",
          "name": "_operatorStore",
          "type": "address"
        }
      ],
      "stateMutability": "nonpayable",
      "type": "constructor"
    },
    {
      "inputs": [],
      "name": "UNAUTHORIZED",
      "type": "error"
    },
    {
      "inputs": [],
      "name": "delegateDeployer",
      "outputs": [
        {
          "internalType": "contract MyDelegateDeployer",
          "name": "",
          "type": "address"
        }
      ],
      "stateMutability": "view",
      "type": "function"
    },
    {
      "inputs": [
        {
          "internalType": "uint256",
          "name": "_projectId",
          "type": "uint256"
        },
        {
          "components": [
            {
              "internalType": "address[]",
              "name": "allowList",
              "type": "address[]"
            }
          ],
          "internalType": "struct DeployMyDelegateData",
          "name": "_deployMyDelegateData",
          "type": "tuple"
        },
        {
          "components": [
            {
              "components": [
                {
                  "internalType": "uint256",
                  "name": "duration",
                  "type": "uint256"
                },
                {
                  "internalType": "uint256",
                  "name": "weight",
                  "type": "uint256"
                },
                {
                  "internalType": "uint256",
                  "name": "discountRate",
                  "type": "uint256"
                },
                {
                  "internalType": "contract IJBFundingCycleBallot",
                  "name": "ballot",
                  "type": "address"
                }
              ],
              "internalType": "struct JBFundingCycleData",
              "name": "data",
              "type": "tuple"
            },
            {
              "components": [
                {
                  "components": [
                    {
                      "internalType": "bool",
                      "name": "allowSetTerminals",
                      "type": "bool"
                    },
                    {
                      "internalType": "bool",
                      "name": "allowSetController",
                      "type": "bool"
                    },
                    {
                      "internalType": "bool",
                      "name": "pauseTransfers",
                      "type": "bool"
                    }
                  ],
                  "internalType": "struct JBGlobalFundingCycleMetadata",
                  "name": "global",
                  "type": "tuple"
                },
                {
                  "internalType": "uint256",
                  "name": "reservedRate",
                  "type": "uint256"
                },
                {
                  "internalType": "uint256",
                  "name": "redemptionRate",
                  "type": "uint256"
                },
                {
                  "internalType": "uint256",
                  "name": "ballotRedemptionRate",
                  "type": "uint256"
                },
                {
                  "internalType": "bool",
                  "name": "pausePay",
                  "type": "bool"
                },
                {
                  "internalType": "bool",
                  "name": "pauseDistributions",
                  "type": "bool"
                },
                {
                  "internalType": "bool",
                  "name": "pauseRedeem",
                  "type": "bool"
                },
                {
                  "internalType": "bool",
                  "name": "pauseBurn",
                  "type": "bool"
                },
                {
                  "internalType": "bool",
                  "name": "allowMinting",
                  "type": "bool"
                },
                {
                  "internalType": "bool",
                  "name": "allowTerminalMigration",
                  "type": "bool"
                },
                {
                  "internalType": "bool",
                  "name": "allowControllerMigration",
                  "type": "bool"
                },
                {
                  "internalType": "bool",
                  "name": "holdFees",
                  "type": "bool"
                },
                {
                  "internalType": "bool",
                  "name": "preferClaimedTokenOverride",
                  "type": "bool"
                },
                {
                  "internalType": "bool",
                  "name": "useTotalOverflowForRedemptions",
                  "type": "bool"
                },
                {
                  "internalType": "bool",
                  "name": "useDataSourceForPay",
                  "type": "bool"
                },
                {
                  "internalType": "bool",
                  "name": "useDataSourceForRedeem",
                  "type": "bool"
                },
                {
                  "internalType": "address",
                  "name": "dataSource",
                  "type": "address"
                },
                {
                  "internalType": "uint256",
                  "name": "metadata",
                  "type": "uint256"
                }
              ],
              "internalType": "struct JBFundingCycleMetadata",
              "name": "metadata",
              "type": "tuple"
            },
            {
              "internalType": "uint256",
              "name": "mustStartAtOrAfter",
              "type": "uint256"
            },
            {
              "components": [
                {
                  "internalType": "uint256",
                  "name": "group",
                  "type": "uint256"
                },
                {
                  "components": [
                    {
                      "internalType": "bool",
                      "name": "preferClaimed",
                      "type": "bool"
                    },
                    {
                      "internalType": "bool",
                      "name": "preferAddToBalance",
                      "type": "bool"
                    },
                    {
                      "internalType": "uint256",
                      "name": "percent",
                      "type": "uint256"
                    },
                    {
                      "internalType": "uint256",
                      "name": "projectId",
                      "type": "uint256"
                    },
                    {
                      "internalType": "address payable",
                      "name": "beneficiary",
                      "type": "address"
                    },
                    {
                      "internalType": "uint256",
                      "name": "lockedUntil",
                      "type": "uint256"
                    },
                    {
                      "internalType": "contract IJBSplitAllocator",
                      "name": "allocator",
                      "type": "address"
                    }
                  ],
                  "internalType": "struct JBSplit[]",
                  "name": "splits",
                  "type": "tuple[]"
                }
              ],
              "internalType": "struct JBGroupedSplits[]",
              "name": "groupedSplits",
              "type": "tuple[]"
            },
            {
              "components": [
                {
                  "internalType": "contract IJBPaymentTerminal",
                  "name": "terminal",
                  "type": "address"
                },
                {
                  "internalType": "address",
                  "name": "token",
                  "type": "address"
                },
                {
                  "internalType": "uint256",
                  "name": "distributionLimit",
                  "type": "uint256"
                },
                {
                  "internalType": "uint256",
                  "name": "distributionLimitCurrency",
                  "type": "uint256"
                },
                {
                  "internalType": "uint256",
                  "name": "overflowAllowance",
                  "type": "uint256"
                },
                {
                  "internalType": "uint256",
                  "name": "overflowAllowanceCurrency",
                  "type": "uint256"
                }
              ],
              "internalType": "struct JBFundAccessConstraints[]",
              "name": "fundAccessConstraints",
              "type": "tuple[]"
            },
            {
              "internalType": "contract IJBPaymentTerminal[]",
              "name": "terminals",
              "type": "address[]"
            },
            {
              "internalType": "string",
              "name": "memo",
              "type": "string"
            }
          ],
          "internalType": "struct LaunchFundingCyclesData",
          "name": "_launchFundingCyclesData",
          "type": "tuple"
        },
        {
          "internalType": "contract IJBController3_1",
          "name": "_controller",
          "type": "address"
        }
      ],
      "name": "launchFundingCyclesFor",
      "outputs": [
        {
          "internalType": "uint256",
          "name": "configuration",
          "type": "uint256"
        }
      ],
      "stateMutability": "nonpayable",
      "type": "function"
    },
    {
      "inputs": [
        {
          "internalType": "address",
          "name": "_owner",
          "type": "address"
        },
        {
          "components": [
            {
              "internalType": "address[]",
              "name": "allowList",
              "type": "address[]"
            }
          ],
          "internalType": "struct DeployMyDelegateData",
          "name": "_deployMyDelegateData",
          "type": "tuple"
        },
        {
          "components": [
            {
              "components": [
                {
                  "internalType": "string",
                  "name": "content",
                  "type": "string"
                },
                {
                  "internalType": "uint256",
                  "name": "domain",
                  "type": "uint256"
                }
              ],
              "internalType": "struct JBProjectMetadata",
              "name": "projectMetadata",
              "type": "tuple"
            },
            {
              "components": [
                {
                  "internalType": "uint256",
                  "name": "duration",
                  "type": "uint256"
                },
                {
                  "internalType": "uint256",
                  "name": "weight",
                  "type": "uint256"
                },
                {
                  "internalType": "uint256",
                  "name": "discountRate",
                  "type": "uint256"
                },
                {
                  "internalType": "contract IJBFundingCycleBallot",
                  "name": "ballot",
                  "type": "address"
                }
              ],
              "internalType": "struct JBFundingCycleData",
              "name": "data",
              "type": "tuple"
            },
            {
              "components": [
                {
                  "components": [
                    {
                      "internalType": "bool",
                      "name": "allowSetTerminals",
                      "type": "bool"
                    },
                    {
                      "internalType": "bool",
                      "name": "allowSetController",
                      "type": "bool"
                    },
                    {
                      "internalType": "bool",
                      "name": "pauseTransfers",
                      "type": "bool"
                    }
                  ],
                  "internalType": "struct JBGlobalFundingCycleMetadata",
                  "name": "global",
                  "type": "tuple"
                },
                {
                  "internalType": "uint256",
                  "name": "reservedRate",
                  "type": "uint256"
                },
                {
                  "internalType": "uint256",
                  "name": "redemptionRate",
                  "type": "uint256"
                },
                {
                  "internalType": "uint256",
                  "name": "ballotRedemptionRate",
                  "type": "uint256"
                },
                {
                  "internalType": "bool",
                  "name": "pausePay",
                  "type": "bool"
                },
                {
                  "internalType": "bool",
                  "name": "pauseDistributions",
                  "type": "bool"
                },
                {
                  "internalType": "bool",
                  "name": "pauseRedeem",
                  "type": "bool"
                },
                {
                  "internalType": "bool",
                  "name": "pauseBurn",
                  "type": "bool"
                },
                {
                  "internalType": "bool",
                  "name": "allowMinting",
                  "type": "bool"
                },
                {
                  "internalType": "bool",
                  "name": "allowTerminalMigration",
                  "type": "bool"
                },
                {
                  "internalType": "bool",
                  "name": "allowControllerMigration",
                  "type": "bool"
                },
                {
                  "internalType": "bool",
                  "name": "holdFees",
                  "type": "bool"
                },
                {
                  "internalType": "bool",
                  "name": "preferClaimedTokenOverride",
                  "type": "bool"
                },
                {
                  "internalType": "bool",
                  "name": "useTotalOverflowForRedemptions",
                  "type": "bool"
                },
                {
                  "internalType": "bool",
                  "name": "useDataSourceForPay",
                  "type": "bool"
                },
                {
                  "internalType": "bool",
                  "name": "useDataSourceForRedeem",
                  "type": "bool"
                },
                {
                  "internalType": "address",
                  "name": "dataSource",
                  "type": "address"
                },
                {
                  "internalType": "uint256",
                  "name": "metadata",
                  "type": "uint256"
                }
              ],
              "internalType": "struct JBFundingCycleMetadata",
              "name": "metadata",
              "type": "tuple"
            },
            {
              "internalType": "uint256",
              "name": "mustStartAtOrAfter",
              "type": "uint256"
            },
            {
              "components": [
                {
                  "internalType": "uint256",
                  "name": "group",
                  "type": "uint256"
                },
                {
                  "components": [
                    {
                      "internalType": "bool",
                      "name": "preferClaimed",
                      "type": "bool"
                    },
                    {
                      "internalType": "bool",
                      "name": "preferAddToBalance",
                      "type": "bool"
                    },
                    {
                      "internalType": "uint256",
                      "name": "percent",
                      "type": "uint256"
                    },
                    {
                      "internalType": "uint256",
                      "name": "projectId",
                      "type": "uint256"
                    },
                    {
                      "internalType": "address payable",
                      "name": "beneficiary",
                      "type": "address"
                    },
                    {
                      "internalType": "uint256",
                      "name": "lockedUntil",
                      "type": "uint256"
                    },
                    {
                      "internalType": "contract IJBSplitAllocator",
                      "name": "allocator",
                      "type": "address"
                    }
                  ],
                  "internalType": "struct JBSplit[]",
                  "name": "splits",
                  "type": "tuple[]"
                }
              ],
              "internalType": "struct JBGroupedSplits[]",
              "name": "groupedSplits",
              "type": "tuple[]"
            },
            {
              "components": [
                {
                  "internalType": "contract IJBPaymentTerminal",
                  "name": "terminal",
                  "type": "address"
                },
                {
                  "internalType": "address",
                  "name": "token",
                  "type": "address"
                },
                {
                  "internalType": "uint256",
                  "name": "distributionLimit",
                  "type": "uint256"
                },
                {
                  "internalType": "uint256",
                  "name": "distributionLimitCurrency",
                  "type": "uint256"
                },
                {
                  "internalType": "uint256",
                  "name": "overflowAllowance",
                  "type": "uint256"
                },
                {
                  "internalType": "uint256",
                  "name": "overflowAllowanceCurrency",
                  "type": "uint256"
                }
              ],
              "internalType": "struct JBFundAccessConstraints[]",
              "name": "fundAccessConstraints",
              "type": "tuple[]"
            },
            {
              "internalType": "contract IJBPaymentTerminal[]",
              "name": "terminals",
              "type": "address[]"
            },
            {
              "internalType": "string",
              "name": "memo",
              "type": "string"
            }
          ],
          "internalType": "struct LaunchProjectData",
          "name": "_launchProjectData",
          "type": "tuple"
        },
        {
          "internalType": "contract IJBController3_1",
          "name": "_controller",
          "type": "address"
        }
      ],
      "name": "launchProjectFor",
      "outputs": [
        {
          "internalType": "uint256",
          "name": "projectId",
          "type": "uint256"
        }
      ],
      "stateMutability": "nonpayable",
      "type": "function"
    },
    {
      "inputs": [],
      "name": "operatorStore",
      "outputs": [
        {
          "internalType": "contract IJBOperatorStore",
          "name": "",
          "type": "address"
        }
      ],
      "stateMutability": "view",
      "type": "function"
    },
    {
      "inputs": [
        {
          "internalType": "uint256",
          "name": "_projectId",
          "type": "uint256"
        },
        {
          "components": [
            {
              "internalType": "address[]",
              "name": "allowList",
              "type": "address[]"
            }
          ],
          "internalType": "struct DeployMyDelegateData",
          "name": "_deployMyDelegateData",
          "type": "tuple"
        },
        {
          "components": [
            {
              "components": [
                {
                  "internalType": "uint256",
                  "name": "duration",
                  "type": "uint256"
                },
                {
                  "internalType": "uint256",
                  "name": "weight",
                  "type": "uint256"
                },
                {
                  "internalType": "uint256",
                  "name": "discountRate",
                  "type": "uint256"
                },
                {
                  "internalType": "contract IJBFundingCycleBallot",
                  "name": "ballot",
                  "type": "address"
                }
              ],
              "internalType": "struct JBFundingCycleData",
              "name": "data",
              "type": "tuple"
            },
            {
              "components": [
                {
                  "components": [
                    {
                      "internalType": "bool",
                      "name": "allowSetTerminals",
                      "type": "bool"
                    },
                    {
                      "internalType": "bool",
                      "name": "allowSetController",
                      "type": "bool"
                    },
                    {
                      "internalType": "bool",
                      "name": "pauseTransfers",
                      "type": "bool"
                    }
                  ],
                  "internalType": "struct JBGlobalFundingCycleMetadata",
                  "name": "global",
                  "type": "tuple"
                },
                {
                  "internalType": "uint256",
                  "name": "reservedRate",
                  "type": "uint256"
                },
                {
                  "internalType": "uint256",
                  "name": "redemptionRate",
                  "type": "uint256"
                },
                {
                  "internalType": "uint256",
                  "name": "ballotRedemptionRate",
                  "type": "uint256"
                },
                {
                  "internalType": "bool",
                  "name": "pausePay",
                  "type": "bool"
                },
                {
                  "internalType": "bool",
                  "name": "pauseDistributions",
                  "type": "bool"
                },
                {
                  "internalType": "bool",
                  "name": "pauseRedeem",
                  "type": "bool"
                },
                {
                  "internalType": "bool",
                  "name": "pauseBurn",
                  "type": "bool"
                },
                {
                  "internalType": "bool",
                  "name": "allowMinting",
                  "type": "bool"
                },
                {
                  "internalType": "bool",
                  "name": "allowTerminalMigration",
                  "type": "bool"
                },
                {
                  "internalType": "bool",
                  "name": "allowControllerMigration",
                  "type": "bool"
                },
                {
                  "internalType": "bool",
                  "name": "holdFees",
                  "type": "bool"
                },
                {
                  "internalType": "bool",
                  "name": "preferClaimedTokenOverride",
                  "type": "bool"
                },
                {
                  "internalType": "bool",
                  "name": "useTotalOverflowForRedemptions",
                  "type": "bool"
                },
                {
                  "internalType": "bool",
                  "name": "useDataSourceForPay",
                  "type": "bool"
                },
                {
                  "internalType": "bool",
                  "name": "useDataSourceForRedeem",
                  "type": "bool"
                },
                {
                  "internalType": "address",
                  "name": "dataSource",
                  "type": "address"
                },
                {
                  "internalType": "uint256",
                  "name": "metadata",
                  "type": "uint256"
                }
              ],
              "internalType": "struct JBFundingCycleMetadata",
              "name": "metadata",
              "type": "tuple"
            },
            {
              "internalType": "uint256",
              "name": "mustStartAtOrAfter",
              "type": "uint256"
            },
            {
              "components": [
                {
                  "internalType": "uint256",
                  "name": "group",
                  "type": "uint256"
                },
                {
                  "components": [
                    {
                      "internalType": "bool",
                      "name": "preferClaimed",
                      "type": "bool"
                    },
                    {
                      "internalType": "bool",
                      "name": "preferAddToBalance",
                      "type": "bool"
                    },
                    {
                      "internalType": "uint256",
                      "name": "percent",
                      "type": "uint256"
                    },
                    {
                      "internalType": "uint256",
                      "name": "projectId",
                      "type": "uint256"
                    },
                    {
                      "internalType": "address payable",
                      "name": "beneficiary",
                      "type": "address"
                    },
                    {
                      "internalType": "uint256",
                      "name": "lockedUntil",
                      "type": "uint256"
                    },
                    {
                      "internalType": "contract IJBSplitAllocator",
                      "name": "allocator",
                      "type": "address"
                    }
                  ],
                  "internalType": "struct JBSplit[]",
                  "name": "splits",
                  "type": "tuple[]"
                }
              ],
              "internalType": "struct JBGroupedSplits[]",
              "name": "groupedSplits",
              "type": "tuple[]"
            },
            {
              "components": [
                {
                  "internalType": "contract IJBPaymentTerminal",
                  "name": "terminal",
                  "type": "address"
                },
                {
                  "internalType": "address",
                  "name": "token",
                  "type": "address"
                },
                {
                  "internalType": "uint256",
                  "name": "distributionLimit",
                  "type": "uint256"
                },
                {
                  "internalType": "uint256",
                  "name": "distributionLimitCurrency",
                  "type": "uint256"
                },
                {
                  "internalType": "uint256",
                  "name": "overflowAllowance",
                  "type": "uint256"
                },
                {
                  "internalType": "uint256",
                  "name": "overflowAllowanceCurrency",
                  "type": "uint256"
                }
              ],
              "internalType": "struct JBFundAccessConstraints[]",
              "name": "fundAccessConstraints",
              "type": "tuple[]"
            },
            {
              "internalType": "string",
              "name": "memo",
              "type": "string"
            }
          ],
          "internalType": "struct ReconfigureFundingCyclesData",
          "name": "_reconfigureFundingCyclesData",
          "type": "tuple"
        },
        {
          "internalType": "contract IJBController3_1",
          "name": "_controller",
          "type": "address"
        }
      ],
      "name": "reconfigureFundingCyclesOf",
      "outputs": [
        {
          "internalType": "uint256",
          "name": "configuration",
          "type": "uint256"
        }
      ],
      "stateMutability": "nonpayable",
      "type": "function"
    }
  ],
  "bytecode": {
    "object": "0x60c06040523480156200001157600080fd5b506040516200200438038062002004833981016040819052620000349162000065565b6001600160a01b039081166080521660a052620000a4565b6001600160a01b03811681146200006257600080fd5b50565b600080604083850312156200007957600080fd5b825162000086816200004c565b602084015190925062000099816200004c565b809150509250929050565b60805160a051611f19620000eb60003960008181609a015281816101f2015281816103d501526105c201526000818160d90152818161070901526107b00152611f196000f3fe608060405234801561001057600080fd5b50600436106100575760003560e01c80633f9736581461005c57806361d3dbf0146100825780638f3d964b14610095578063ad007d63146100d4578063c2105525146100fb575b600080fd5b61006f61006a366004611436565b61010e565b6040519081526020015b60405180910390f35b61006f610090366004611612565b6102ff565b6100bc7f000000000000000000000000000000000000000000000000000000000000000081565b6040516001600160a01b039091168152602001610079565b6100bc7f000000000000000000000000000000000000000000000000000000000000000081565b61006f610109366004611780565b6104de565b6000816001600160a01b0316638b79543c6040518163ffffffff1660e01b8152600401602060405180830381865afa15801561014e573d6000803e3d6000fd5b505050506040513d601f19601f8201168201806040525081019061017291906118c1565b6001600160a01b0316636352211e866040518263ffffffff1660e01b815260040161019f91815260200190565b602060405180830381865afa1580156101bc573d6000803e3d6000fd5b505050506040513d601f19601f820116820180604052508101906101e091906118c1565b8560016101ee8383836106c2565b60007f00000000000000000000000000000000000000000000000000000000000000006001600160a01b031663a25f53be8a8a896001600160a01b031663c41c2f246040518163ffffffff1660e01b8152600401602060405180830381865afa15801561025f573d6000803e3d6000fd5b505050506040513d601f19601f8201168201806040525081019061028391906118c1565b6040518463ffffffff1660e01b81526004016102a1939291906118e5565b6020604051808303816000875af11580156102c0573d6000803e3d6000fd5b505050506040513d601f19601f820116820180604052508101906102e491906118c1565b90506102f289888389610840565b9998505050505050505050565b6000816001600160a01b0316638b79543c6040518163ffffffff1660e01b8152600401602060405180830381865afa15801561033f573d6000803e3d6000fd5b505050506040513d601f19601f8201168201806040525081019061036391906118c1565b6001600160a01b03166306661abd6040518163ffffffff1660e01b8152600401602060405180830381865afa1580156103a0573d6000803e3d6000fd5b505050506040513d601f19601f820116820180604052508101906103c4919061195c565b6103cf906001611975565b905060007f00000000000000000000000000000000000000000000000000000000000000006001600160a01b031663a25f53be8387866001600160a01b031663c41c2f246040518163ffffffff1660e01b8152600401602060405180830381865afa158015610442573d6000803e3d6000fd5b505050506040513d601f19601f8201168201806040525081019061046691906118c1565b6040518463ffffffff1660e01b8152600401610484939291906118e5565b6020604051808303816000875af11580156104a3573d6000803e3d6000fd5b505050506040513d601f19601f820116820180604052508101906104c791906118c1565b90506104d586858386610a01565b50949350505050565b6000816001600160a01b0316638b79543c6040518163ffffffff1660e01b8152600401602060405180830381865afa15801561051e573d6000803e3d6000fd5b505050506040513d601f19601f8201168201806040525081019061054291906118c1565b6001600160a01b0316636352211e866040518263ffffffff1660e01b815260040161056f91815260200190565b602060405180830381865afa15801561058c573d6000803e3d6000fd5b505050506040513d601f19601f820116820180604052508101906105b091906118c1565b8560016105be8383836106c2565b60007f00000000000000000000000000000000000000000000000000000000000000006001600160a01b031663a25f53be8a8a896001600160a01b031663c41c2f246040518163ffffffff1660e01b8152600401602060405180830381865afa15801561062f573d6000803e3d6000fd5b505050506040513d601f19601f8201168201806040525081019061065391906118c1565b6040518463ffffffff1660e01b8152600401610671939291906118e5565b6020604051808303816000875af1158015610690573d6000803e3d6000fd5b505050506040513d601f19601f820116820180604052508101906106b491906118c1565b90506102f289888389610b98565b336001600160a01b03841614801590610776575060405163c161c93f60e01b81523360048201526001600160a01b03848116602483015260448201849052606482018390527f0000000000000000000000000000000000000000000000000000000000000000169063c161c93f90608401602060405180830381865afa158015610750573d6000803e3d6000fd5b505050506040513d601f19601f82011682018060405250810190610774919061199c565b155b801561081d575060405163c161c93f60e01b81523360048201526001600160a01b03848116602483015260006044830152606482018390527f0000000000000000000000000000000000000000000000000000000000000000169063c161c93f90608401602060405180830381865afa1580156107f7573d6000803e3d6000fd5b505050506040513d601f19601f8201168201806040525081019061081b919061199c565b155b1561083b5760405163075fd2b160e01b815260040160405180910390fd5b505050565b6000816001600160a01b031663badbdf28868660000151604051806102400160405280896020015160000151815260200189602001516020015181526020018960200151604001518152602001896020015160600151815260200189602001516080015115158152602001896020015160a0015115158152602001896020015160c0015115158152602001896020015160e00151151581526020018960200151610100015115158152602001896020015161012001511515815260200189602001516101400151151581526020018960200151610160015115158152602001896020015161018001511515815260200189602001516101a001511515815260200189602001516101c001511515815260200189602001516101e0015115158152602001886001600160a01b0316815260200189602001516102200151815250886040015189606001518a608001518b60a001516040518863ffffffff1660e01b81526004016109b59796959493929190611ceb565b6020604051808303816000875af11580156109d4573d6000803e3d6000fd5b505050506040513d601f19601f820116820180604052508101906109f8919061195c565b95945050505050565b8251602080850151604080516102408101825281880180515182528051850151948201949094528351820151818301528351606090810151818301528451608090810151151581840152855160a090810151151581850152865160c090810151151581860152875160e09081015115158187015288516101009081015115159087015288516101209081015115159087015288516101409081015115159087015288516101609081015115159087015288516101809081015115159087015288516101a09081015115159087015288516101c09081015115159087015288516101e0908101511515908701526001600160a01b038c811661020088015298516102209081015190870152938c0151928c0151918c0151908c0151938c0151955163b3c5267360e01b8152978a169863b3c5267398610b4e988f989297909690959493929091600401611d98565b6020604051808303816000875af1158015610b6d573d6000803e3d6000fd5b505050506040513d601f19601f82011682018060405250810190610b91919061195c565b5050505050565b6000816001600160a01b031663111d861b868660000151604051806102400160405280896020015160000151815260200189602001516020015181526020018960200151604001518152602001896020015160600151815260200189602001516080015115158152602001896020015160a0015115158152602001896020015160c0015115158152602001896020015160e00151151581526020018960200151610100015115158152602001896020015161012001511515815260200189602001516101400151151581526020018960200151610160015115158152602001896020015161018001511515815260200189602001516101a001511515815260200189602001516101c001511515815260200189602001516101e0015115158152602001886001600160a01b0316815260200189602001516102200151815250886040015189606001518a608001518b60a001518c60c001516040518963ffffffff1660e01b81526004016109b5989796959493929190611e59565b634e487b7160e01b600052604160045260246000fd5b604051602081016001600160401b0381118282101715610d4b57610d4b610d13565b60405290565b60405161024081016001600160401b0381118282101715610d4b57610d4b610d13565b604080519081016001600160401b0381118282101715610d4b57610d4b610d13565b60405160e081016001600160401b0381118282101715610d4b57610d4b610d13565b60405160c081016001600160401b0381118282101715610d4b57610d4b610d13565b60405161010081016001600160401b0381118282101715610d4b57610d4b610d13565b604051601f8201601f191681016001600160401b0381118282101715610e2557610e25610d13565b604052919050565b60006001600160401b03821115610e4657610e46610d13565b5060051b60200190565b6001600160a01b0381168114610e6557600080fd5b50565b8035610e7381610e50565b919050565b60006020808385031215610e8b57600080fd5b610e93610d29565b915082356001600160401b03811115610eab57600080fd5b8301601f81018513610ebc57600080fd5b8035610ecf610eca82610e2d565b610dfd565b81815260059190911b82018301908381019087831115610eee57600080fd5b928401925b82841015610f15578335610f0681610e50565b82529284019290840190610ef3565b8552509295945050505050565b600060808284031215610f3457600080fd5b604051608081018181106001600160401b0382111715610f5657610f56610d13565b80604052508091508235815260208301356020820152604083013560408201526060830135610f8481610e50565b6060919091015292915050565b8015158114610e6557600080fd5b8035610e7381610f91565b600060608284031215610fbc57600080fd5b604051606081018181106001600160401b0382111715610fde57610fde610d13565b6040529050808235610fef81610f91565b81526020830135610fff81610f91565b6020820152604083013561101281610f91565b6040919091015292915050565b6000610280828403121561103257600080fd5b61103a610d51565b90506110468383610faa565b8152606082013560208201526080820135604082015260a0820135606082015261107260c08301610f9f565b608082015261108360e08301610f9f565b60a0820152610100611096818401610f9f565b60c08301526101206110a9818501610f9f565b60e08401526101406110bc818601610f9f565b8385015261016092506110d0838601610f9f565b8285015261018091506110e4828601610f9f565b908401526101a06110f6858201610f9f565b838501526101c0925061110a838601610f9f565b828501526101e0915061111e828601610f9f565b90840152610200611130858201610f9f565b838501526102209250611144838601610f9f565b828501526111556102408601610e68565b818501525050610260830135818301525092915050565b600082601f83011261117d57600080fd5b8135602061118d610eca83610e2d565b82815260059290921b840181019181810190868411156111ac57600080fd5b8286015b848110156112f85780356001600160401b03808211156111cf57600080fd5b908801906040828b03601f19018113156111e857600080fd5b6111f0610d74565b878401358152818401358381111561120757600080fd5b8085019450508b603f85011261121c57600080fd5b87840135925061122e610eca84610e2d565b83815260e09093028401820192888101908d85111561124c57600080fd5b948301945b848610156112e35760e0868f03121561126957600080fd5b611271610d96565b863561127c81610f91565b8152868b013561128b81610f91565b818c015286850135858201526060808801359082015260808701356112af81610e50565b608082015260a0878101359082015260c08701356112cc81610e50565b60c0820152825260e0959095019490890190611251565b828a01525086525050509183019183016111b0565b509695505050505050565b600082601f83011261131457600080fd5b81356020611324610eca83610e2d565b82815260c0928302850182019282820191908785111561134357600080fd5b8387015b858110156113ba5781818a03121561135f5760008081fd5b611367610db8565b813561137281610e50565b81528186013561138181610e50565b8187015260408281013590820152606080830135908201526080808301359082015260a080830135908201528452928401928101611347565b5090979650505050505050565b600082601f8301126113d857600080fd5b81356001600160401b038111156113f1576113f1610d13565b611404601f8201601f1916602001610dfd565b81815284602083860101111561141957600080fd5b816020850160208301376000918101602001919091529392505050565b6000806000806080858703121561144c57600080fd5b8435935060208501356001600160401b038082111561146a57600080fd5b61147688838901610e78565b9450604087013591508082111561148c57600080fd5b9086019061038082890312156114a157600080fd5b6114a9610db8565b6114b38984610f22565b81526114c2896080850161101f565b60208201526103008301356040820152610320830135828111156114e557600080fd5b6114f18a82860161116c565b6060830152506103408301358281111561150a57600080fd5b6115168a828601611303565b6080830152506103608301358281111561152f57600080fd5b61153b8a8286016113c7565b60a083015250935061155291505060608601610e68565b905092959194509250565b60006040828403121561156f57600080fd5b611577610d74565b905081356001600160401b0381111561158f57600080fd5b61159b848285016113c7565b8252506020820135602082015292915050565b600082601f8301126115bf57600080fd5b813560206115cf610eca83610e2d565b82815260059290921b840181019181810190868411156115ee57600080fd5b8286015b848110156112f857803561160581610e50565b83529183019183016115f2565b6000806000806080858703121561162857600080fd5b843561163381610e50565b935060208501356001600160401b038082111561164f57600080fd5b61165b88838901610e78565b9450604087013591508082111561167157600080fd5b908601906103c0828903121561168657600080fd5b61168e610dda565b82358281111561169d57600080fd5b6116a98a82860161155d565b8252506116b98960208501610f22565b60208201526116cb8960a0850161101f565b60408201526103208301356060820152610340830135828111156116ee57600080fd5b6116fa8a82860161116c565b6080830152506103608301358281111561171357600080fd5b61171f8a828601611303565b60a0830152506103808301358281111561173857600080fd5b6117448a8286016115ae565b60c0830152506103a08301358281111561175d57600080fd5b6117698a8286016113c7565b60e083015250935061155291505060608601610e68565b6000806000806080858703121561179657600080fd5b8435935060208501356001600160401b03808211156117b457600080fd5b6117c088838901610e78565b945060408701359150808211156117d657600080fd5b908601906103a082890312156117eb57600080fd5b6117f3610d96565b6117fd8984610f22565b815261180c896080850161101f565b602082015261030083013560408201526103208301358281111561182f57600080fd5b61183b8a82860161116c565b6060830152506103408301358281111561185457600080fd5b6118608a828601611303565b6080830152506103608301358281111561187957600080fd5b6118858a8286016115ae565b60a0830152506103808301358281111561189e57600080fd5b6118aa8a8286016113c7565b60c083015250935061155291505060608601610e68565b6000602082840312156118d357600080fd5b81516118de81610e50565b9392505050565b838152606060208083018290528451918301819052815160808401819052600092820190839060a08601905b8083101561193a5783516001600160a01b03168252928401926001929092019190840190611911565b506001600160a01b039690961660409590950194909452509295945050505050565b60006020828403121561196e57600080fd5b5051919050565b8082018082111561199657634e487b7160e01b600052601160045260246000fd5b92915050565b6000602082840312156119ae57600080fd5b81516118de81610f91565b8051825260208082015190830152604080820151908301526060908101516001600160a01b0316910152565b611a0a8282518051151582526020808201511515908301526040908101511515910152565b6020810151606083015260408101516080830152606081015160a08301526080810151611a3b60c084018215159052565b5060a081015180151560e08401525060c0810151610100611a5f8185018315159052565b60e08301519150610120611a768186018415159052565b90830151915061014090611a8d8583018415159052565b8301519150610160611aa28582018415159052565b90830151915061018090611ab98583018415159052565b83015191506101a0611ace8582018415159052565b9083015191506101c090611ae58583018415159052565b83015191506101e0611afa8582018415159052565b90830151915061020090611b118583018415159052565b8301519150610220611b268582018415159052565b908301516001600160a01b0316610240850152909101516102609092019190915250565b600081518084526020808501808196508360051b810191508286016000805b86811015611c1c578385038a52825180518652860151604087870181905281518188018190529188019160609081890190865b81811015611c055785518051151584528c81015115158d850152858101518685015284810151858501526080808201516001600160a01b039081169186019190915260a0808301519086015260c0918201511690840152948b019460e090920191600101611b9c565b50509c89019c975050509286019250600101611b69565b509298975050505050505050565b600081518084526020808501945080840160005b83811015611c9a57815180516001600160a01b03908116895284820151168489015260408082015190890152606080820151908901526080808201519089015260a0908101519088015260c09096019590820190600101611c3e565b509495945050505050565b6000815180845260005b81811015611ccb57602081850181015186830182015201611caf565b506000602082860101526020601f19601f83011685010191505092915050565b60006103a0898352611d00602084018a6119b9565b611d0d60a08401896119e5565b8661032084015280610340840152611d2781840187611b4a565b9050828103610360840152611d3c8186611c2a565b9050828103610380840152611d518185611ca5565b9a9950505050505050505050565b600081518084526020808501945080840160005b83811015611c9a5781516001600160a01b031687529582019590820190600101611d73565b6001600160a01b038a1681526103e060208201819052895160408383015260009190611dc8610420850182611ca5565b91505060208b0151610400840152611de3604084018b6119b9565b611df060c084018a6119e5565b87610340840152828103610360840152611e0a8188611b4a565b9050828103610380840152611e1f8187611c2a565b90508281036103a0840152611e348186611d5f565b90508281036103c0840152611e498185611ca5565b9c9b505050505050505050505050565b60006103c08a8352611e6e602084018b6119b9565b611e7b60a084018a6119e5565b8761032084015280610340840152611e9581840188611b4a565b9050828103610360840152611eaa8187611c2a565b9050828103610380840152611ebf8186611d5f565b90508281036103a0840152611ed48185611ca5565b9b9a505050505050505050505056fea2646970667358221220b779e6d0cacff9a7f1a245a0324321f0cb6351d5a2c66ecb20679db64eb45fde64736f6c63430008140033",
    "linkReferences": {}
  },
  "methodIdentifiers": {
    "delegateDeployer()": "8f3d964b",
    "launchFundingCyclesFor(uint256,(address[]),((uint256,uint256,uint256,address),((bool,bool,bool),uint256,uint256,uint256,bool,bool,bool,bool,bool,bool,bool,bool,bool,bool,bool,bool,address,uint256),uint256,(uint256,(bool,bool,uint256,uint256,address,uint256,address)[])[],(address,address,uint256,uint256,uint256,uint256)[],address[],string),address)": "c2105525",
    "launchProjectFor(address,(address[]),((string,uint256),(uint256,uint256,uint256,address),((bool,bool,bool),uint256,uint256,uint256,bool,bool,bool,bool,bool,bool,bool,bool,bool,bool,bool,bool,address,uint256),uint256,(uint256,(bool,bool,uint256,uint256,address,uint256,address)[])[],(address,address,uint256,uint256,uint256,uint256)[],address[],string),address)": "61d3dbf0",
    "operatorStore()": "ad007d63",
    "reconfigureFundingCyclesOf(uint256,(address[]),((uint256,uint256,uint256,address),((bool,bool,bool),uint256,uint256,uint256,bool,bool,bool,bool,bool,bool,bool,bool,bool,bool,bool,bool,address,uint256),uint256,(uint256,(bool,bool,uint256,uint256,address,uint256,address)[])[],(address,address,uint256,uint256,uint256,uint256)[],string),address)": "3f973658"
  },
  "id": 141
}