{
  "abi": [
    {
      "inputs": [
        {
          "internalType": "contract IJBProjects",
          "name": "_projects",
          "type": "address"
        },
        {
          "internalType": "contract IJBOperatorStore",
          "name": "_operatorStore",
          "type": "address"
        }
      ],
      "stateMutability": "nonpayable",
      "type": "constructor"
    },
    {
      "inputs": [
        {
          "internalType": "address",
          "name": "ownerAddress",
          "type": "address"
        },
        {
          "internalType": "uint256",
          "name": "projectId",
          "type": "uint256"
        }
      ],
      "name": "INVALID_NEW_OWNER",
      "type": "error"
    },
    {
      "inputs": [],
      "name": "UNAUTHORIZED",
      "type": "error"
    },
    {
      "anonymous": false,
      "inputs": [
        {
          "indexed": true,
          "internalType": "address",
          "name": "previousOwner",
          "type": "address"
        },
        {
          "indexed": true,
          "internalType": "address",
          "name": "newOwner",
          "type": "address"
        }
      ],
      "name": "OwnershipTransferred",
      "type": "event"
    },
    {
      "anonymous": false,
      "inputs": [
        {
          "indexed": false,
          "internalType": "uint8",
          "name": "newIndex",
          "type": "uint8"
        }
      ],
      "name": "PermissionIndexChanged",
      "type": "event"
    },
    {
      "inputs": [],
      "name": "jbOwner",
      "outputs": [
        {
          "internalType": "address",
          "name": "owner",
          "type": "address"
        },
        {
          "internalType": "uint88",
          "name": "projectId",
          "type": "uint88"
        },
        {
          "internalType": "uint8",
          "name": "permissionIndex",
          "type": "uint8"
        }
      ],
      "stateMutability": "view",
      "type": "function"
    },
    {
      "inputs": [],
      "name": "operatorStore",
      "outputs": [
        {
          "internalType": "contract IJBOperatorStore",
          "name": "",
          "type": "address"
        }
      ],
      "stateMutability": "view",
      "type": "function"
    },
    {
      "inputs": [],
      "name": "owner",
      "outputs": [
        {
          "internalType": "address",
          "name": "",
          "type": "address"
        }
      ],
      "stateMutability": "view",
      "type": "function"
    },
    {
      "inputs": [],
      "name": "projects",
      "outputs": [
        {
          "internalType": "contract IJBProjects",
          "name": "",
          "type": "address"
        }
      ],
      "stateMutability": "view",
      "type": "function"
    },
    {
      "inputs": [],
      "name": "renounceOwnership",
      "outputs": [],
      "stateMutability": "nonpayable",
      "type": "function"
    },
    {
      "inputs": [
        {
          "internalType": "uint8",
          "name": "_permissionIndex",
          "type": "uint8"
        }
      ],
      "name": "setPermissionIndex",
      "outputs": [],
      "stateMutability": "nonpayable",
      "type": "function"
    },
    {
      "inputs": [
        {
          "internalType": "address",
          "name": "_newOwner",
          "type": "address"
        }
      ],
      "name": "transferOwnership",
      "outputs": [],
      "stateMutability": "nonpayable",
      "type": "function"
    },
    {
      "inputs": [
        {
          "internalType": "uint256",
          "name": "_projectId",
          "type": "uint256"
        }
      ],
      "name": "transferOwnershipToProject",
      "outputs": [],
      "stateMutability": "nonpayable",
      "type": "function"
    }
  ],
  "bytecode": {
    "object": "0x60c06040523480156200001157600080fd5b5060405162000d5b38038062000d5b8339810160408190526200003491620002fc565b6001600160a01b03808216608052821660a052818162000054336200005e565b5050505062000362565b6200006b8160006200006e565b50565b6001600160581b038116158015906200008f57506001600160a01b03821615155b15620000cc576040516324abfd1160e11b81526001600160a01b03831660048201526001600160581b038216602482015260440160405180910390fd5b60408051606081018252600080546001600160a01b0381168352600160a01b81046001600160581b031660208401819052600160f81b90910460ff16938301939093529091156200019b5760a05160208301516040516331a9108f60e11b81526001600160581b0390911660048201526001600160a01b0390911690636352211e90602401602060405180830381865afa1580156200016f573d6000803e3d6000fd5b505050506040513d601f19601f820116820180604052508101906200019591906200033b565b6200019e565b81515b604080516060810182526001600160a01b0387168082526001600160581b0387166020830181905260009290930182905281547fff000000000000000000000000000000000000000000000000000000000000001617600160a01b8302176001600160f81b031690559091506200029c90829015620002955760a0516040516331a9108f60e11b81526001600160581b03871660048201526001600160a01b0390911690636352211e90602401602060405180830381865afa15801562000269573d6000803e3d6000fd5b505050506040513d601f19601f820116820180604052508101906200028f91906200033b565b620002a2565b85620002a2565b50505050565b806001600160a01b0316826001600160a01b03167f8be0079c531659141344cd1fd0a4f28419497f9722a3daafe3b4186f6b6457e060405160405180910390a35050565b6001600160a01b03811681146200006b57600080fd5b600080604083850312156200031057600080fd5b82516200031d81620002e6565b60208401519092506200033081620002e6565b809150509250929050565b6000602082840312156200034e57600080fd5b81516200035b81620002e6565b9392505050565b60805160a0516109aa620003b16000396000818160af01528181610240015281816103c601528181610582015261067a01526000818161010e0152818161074801526107f101526109aa6000f3fe608060405234801561001057600080fd5b50600436106100885760003560e01c8063a220d6961161005b578063a220d696146100f6578063ad007d6314610109578063ba23c36e14610130578063f2fde38b1461019057600080fd5b806361aec7a91461008d578063715018a6146100a25780638b79543c146100aa5780638da5cb5b146100ee575b600080fd5b6100a061009b3660046108c0565b6101a3565b005b6100a06101b7565b6100d17f000000000000000000000000000000000000000000000000000000000000000081565b6040516001600160a01b0390911681526020015b60405180910390f35b6100d16101cc565b6100a06101043660046108ea565b6102b9565b6100d17f000000000000000000000000000000000000000000000000000000000000000081565b600054610160906001600160a01b03811690600160a01b81046001600160581b031690600160f81b900460ff1683565b604080516001600160a01b0390941684526001600160581b03909216602084015260ff16908201526060016100e5565b6100a061019e366004610918565b61030c565b6101ab610358565b6101b481610466565b50565b6101bf610358565b6101ca6000806104bc565b565b60408051606081018252600080546001600160a01b0381168352600160a01b81046001600160581b031660208401819052600160f81b90910460ff169383019390935291820361021c5751919050565b60208101516040516331a9108f60e11b81526001600160581b0390911660048201527f00000000000000000000000000000000000000000000000000000000000000006001600160a01b031690636352211e90602401602060405180830381865afa15801561028f573d6000803e3d6000fd5b505050506040513d601f19601f820116820180604052508101906102b39190610935565b91505090565b6102c1610358565b8015806102d457506001600160581b0381115b15610301576040516324abfd1160e11b815260006004820152602481018290526044015b60405180910390fd5b6101b46000826104bc565b610314610358565b6001600160a01b03811661034d576040516324abfd1160e11b81526001600160a01b0382166004820152600060248201526044016102f8565b6101b48160006104bc565b60408051606081018252600080546001600160a01b0381168352600160a01b81046001600160581b031660208401819052600160f81b90910460ff169383019390935290911561043e5760208201516040516331a9108f60e11b81526001600160581b0390911660048201527f00000000000000000000000000000000000000000000000000000000000000006001600160a01b031690636352211e90602401602060405180830381865afa158015610415573d6000803e3d6000fd5b505050506040513d601f19601f820116820180604052508101906104399190610935565b610441565b81515b90506104628183602001516001600160581b0316846040015160ff166106fe565b5050565b600080546001600160f81b0316600160f81b60ff8416908102919091179091556040519081527f197cbe84f592e417694036927858418efc958896363c034f9aaa25af88953beb9060200160405180910390a150565b6001600160581b038116158015906104dc57506001600160a01b03821615155b15610514576040516324abfd1160e11b81526001600160a01b03831660048201526001600160581b03821660248201526044016102f8565b60408051606081018252600080546001600160a01b0381168352600160a01b81046001600160581b031660208401819052600160f81b90910460ff16938301939093529091156105fa5760208201516040516331a9108f60e11b81526001600160581b0390911660048201527f00000000000000000000000000000000000000000000000000000000000000006001600160a01b031690636352211e90602401602060405180830381865afa1580156105d1573d6000803e3d6000fd5b505050506040513d601f19601f820116820180604052508101906105f59190610935565b6105fd565b81515b604080516060810182526001600160a01b0387168082526001600160581b0387166020830181905260009290930182905281546001600160f81b03191617600160a01b8302176001600160f81b031690559091506106f8908290156106f2576040516331a9108f60e11b81526001600160581b03861660048201527f00000000000000000000000000000000000000000000000000000000000000006001600160a01b031690636352211e90602401602060405180830381865afa1580156106c9573d6000803e3d6000fd5b505050506040513d601f19601f820116820180604052508101906106ed9190610935565b61087c565b8561087c565b50505050565b336001600160a01b03841681148015906107b5575060405163c161c93f60e01b81526001600160a01b038281166004830152858116602483015260448201859052606482018490527f0000000000000000000000000000000000000000000000000000000000000000169063c161c93f90608401602060405180830381865afa15801561078f573d6000803e3d6000fd5b505050506040513d601f19601f820116820180604052508101906107b39190610952565b155b801561085e575060405163c161c93f60e01b81526001600160a01b038281166004830152858116602483015260006044830152606482018490527f0000000000000000000000000000000000000000000000000000000000000000169063c161c93f90608401602060405180830381865afa158015610838573d6000803e3d6000fd5b505050506040513d601f19601f8201168201806040525081019061085c9190610952565b155b156106f85760405163075fd2b160e01b815260040160405180910390fd5b806001600160a01b0316826001600160a01b03167f8be0079c531659141344cd1fd0a4f28419497f9722a3daafe3b4186f6b6457e060405160405180910390a35050565b6000602082840312156108d257600080fd5b813560ff811681146108e357600080fd5b9392505050565b6000602082840312156108fc57600080fd5b5035919050565b6001600160a01b03811681146101b457600080fd5b60006020828403121561092a57600080fd5b81356108e381610903565b60006020828403121561094757600080fd5b81516108e381610903565b60006020828403121561096457600080fd5b815180151581146108e357600080fdfea26469706673582212202df5bf03df1718d3a8cb07a8905c0bfd2a7ada50a60f8393e27d3ae76214682164736f6c63430008140033",
    "linkReferences": {}
  },
  "methodIdentifiers": {
    "jbOwner()": "ba23c36e",
    "operatorStore()": "ad007d63",
    "owner()": "8da5cb5b",
    "projects()": "8b79543c",
    "renounceOwnership()": "715018a6",
    "setPermissionIndex(uint8)": "61aec7a9",
    "transferOwnership(address)": "f2fde38b",
    "transferOwnershipToProject(uint256)": "a220d696"
  },
  "id": 101
}