{
  "abi": [
    {
      "inputs": [
        {
          "internalType": "uint72",
          "name": "_tier1MinContribution",
          "type": "uint72"
        },
        {
          "internalType": "uint72",
          "name": "_tier1MaxContribution",
          "type": "uint72"
        },
        {
          "internalType": "uint24",
          "name": "_tier1BonusPercentage",
          "type": "uint24"
        },
        {
          "internalType": "uint72",
          "name": "_tier2MinContribution",
          "type": "uint72"
        },
        {
          "internalType": "uint72",
          "name": "_tier2MaxContribution",
          "type": "uint72"
        },
        {
          "internalType": "uint24",
          "name": "_tier2BonusPercentage",
          "type": "uint24"
        },
        {
          "internalType": "uint72",
          "name": "_tier3MinContribution",
          "type": "uint72"
        },
        {
          "internalType": "uint72",
          "name": "_tier3MaxContribution",
          "type": "uint72"
        },
        {
          "internalType": "uint24",
          "name": "_tier3BonusPercentage",
          "type": "uint24"
        }
      ],
      "stateMutability": "nonpayable",
      "type": "constructor"
    },
    {
      "inputs": [
        {
          "internalType": "address",
          "name": "ownerAddress",
          "type": "address"
        },
        {
          "internalType": "uint256",
          "name": "projectId",
          "type": "uint256"
        }
      ],
      "name": "INVALID_NEW_OWNER",
      "type": "error"
    },
    {
      "inputs": [
        {
          "internalType": "address",
          "name": "caller",
          "type": "address"
        },
        {
          "internalType": "uint256",
          "name": "projectId",
          "type": "uint256"
        },
        {
          "internalType": "uint256",
          "name": "value",
          "type": "uint256"
        }
      ],
      "name": "INVALID_PAYMENT_EVENT",
      "type": "error"
    },
    {
      "inputs": [
        {
          "internalType": "address",
          "name": "caller",
          "type": "address"
        },
        {
          "internalType": "uint256",
          "name": "projectId",
          "type": "uint256"
        },
        {
          "internalType": "uint256",
          "name": "value",
          "type": "uint256"
        }
      ],
      "name": "INVALID_REDEMPTION_EVENT",
      "type": "error"
    },
    {
      "inputs": [
        {
          "internalType": "address",
          "name": "payer",
          "type": "address"
        }
      ],
      "name": "PAYER_NOT_ON_ALLOWLIST",
      "type": "error"
    },
    {
      "inputs": [],
      "name": "UNAUTHORIZED",
      "type": "error"
    },
    {
      "anonymous": false,
      "inputs": [
        {
          "indexed": true,
          "internalType": "address",
          "name": "previousOwner",
          "type": "address"
        },
        {
          "indexed": true,
          "internalType": "address",
          "name": "newOwner",
          "type": "address"
        }
      ],
      "name": "OwnershipTransferred",
      "type": "event"
    },
    {
      "anonymous": false,
      "inputs": [
        {
          "indexed": false,
          "internalType": "uint8",
          "name": "newIndex",
          "type": "uint8"
        }
      ],
      "name": "PermissionIndexChanged",
      "type": "event"
    },
    {
      "inputs": [],
      "name": "Tierinfo",
      "outputs": [
        {
          "internalType": "uint72",
          "name": "tier1MinContribution",
          "type": "uint72"
        },
        {
          "internalType": "uint72",
          "name": "tier1MaxContribution",
          "type": "uint72"
        },
        {
          "internalType": "uint24",
          "name": "tier1BonusPercentage",
          "type": "uint24"
        },
        {
          "internalType": "uint72",
          "name": "tier2MinContribution",
          "type": "uint72"
        },
        {
          "internalType": "uint72",
          "name": "tier2MaxContribution",
          "type": "uint72"
        },
        {
          "internalType": "uint24",
          "name": "tier2BonusPercentage",
          "type": "uint24"
        },
        {
          "internalType": "uint72",
          "name": "tier3MinContribution",
          "type": "uint72"
        },
        {
          "internalType": "uint72",
          "name": "tier3MaxContribution",
          "type": "uint72"
        },
        {
          "internalType": "uint24",
          "name": "tier3BonusPercentage",
          "type": "uint24"
        }
      ],
      "stateMutability": "view",
      "type": "function"
    },
    {
      "inputs": [
        {
          "components": [
            {
              "internalType": "address",
              "name": "payer",
              "type": "address"
            },
            {
              "internalType": "uint256",
              "name": "projectId",
              "type": "uint256"
            },
            {
              "internalType": "uint256",
              "name": "currentFundingCycleConfiguration",
              "type": "uint256"
            },
            {
              "components": [
                {
                  "internalType": "address",
                  "name": "token",
                  "type": "address"
                },
                {
                  "internalType": "uint256",
                  "name": "value",
                  "type": "uint256"
                },
                {
                  "internalType": "uint256",
                  "name": "decimals",
                  "type": "uint256"
                },
                {
                  "internalType": "uint256",
                  "name": "currency",
                  "type": "uint256"
                }
              ],
              "internalType": "struct JBTokenAmount",
              "name": "amount",
              "type": "tuple"
            },
            {
              "components": [
                {
                  "internalType": "address",
                  "name": "token",
                  "type": "address"
                },
                {
                  "internalType": "uint256",
                  "name": "value",
                  "type": "uint256"
                },
                {
                  "internalType": "uint256",
                  "name": "decimals",
                  "type": "uint256"
                },
                {
                  "internalType": "uint256",
                  "name": "currency",
                  "type": "uint256"
                }
              ],
              "internalType": "struct JBTokenAmount",
              "name": "forwardedAmount",
              "type": "tuple"
            },
            {
              "internalType": "uint256",
              "name": "projectTokenCount",
              "type": "uint256"
            },
            {
              "internalType": "address",
              "name": "beneficiary",
              "type": "address"
            },
            {
              "internalType": "bool",
              "name": "preferClaimedTokens",
              "type": "bool"
            },
            {
              "internalType": "string",
              "name": "memo",
              "type": "string"
            },
            {
              "internalType": "bytes",
              "name": "metadata",
              "type": "bytes"
            }
          ],
          "internalType": "struct JBDidPayData",
          "name": "_data",
          "type": "tuple"
        }
      ],
      "name": "didPay",
      "outputs": [],
      "stateMutability": "payable",
      "type": "function"
    },
    {
      "inputs": [
        {
          "components": [
            {
              "internalType": "address",
              "name": "holder",
              "type": "address"
            },
            {
              "internalType": "uint256",
              "name": "projectId",
              "type": "uint256"
            },
            {
              "internalType": "uint256",
              "name": "currentFundingCycleConfiguration",
              "type": "uint256"
            },
            {
              "internalType": "uint256",
              "name": "projectTokenCount",
              "type": "uint256"
            },
            {
              "components": [
                {
                  "internalType": "address",
                  "name": "token",
                  "type": "address"
                },
                {
                  "internalType": "uint256",
                  "name": "value",
                  "type": "uint256"
                },
                {
                  "internalType": "uint256",
                  "name": "decimals",
                  "type": "uint256"
                },
                {
                  "internalType": "uint256",
                  "name": "currency",
                  "type": "uint256"
                }
              ],
              "internalType": "struct JBTokenAmount",
              "name": "reclaimedAmount",
              "type": "tuple"
            },
            {
              "components": [
                {
                  "internalType": "address",
                  "name": "token",
                  "type": "address"
                },
                {
                  "internalType": "uint256",
                  "name": "value",
                  "type": "uint256"
                },
                {
                  "internalType": "uint256",
                  "name": "decimals",
                  "type": "uint256"
                },
                {
                  "internalType": "uint256",
                  "name": "currency",
                  "type": "uint256"
                }
              ],
              "internalType": "struct JBTokenAmount",
              "name": "forwardedAmount",
              "type": "tuple"
            },
            {
              "internalType": "address payable",
              "name": "beneficiary",
              "type": "address"
            },
            {
              "internalType": "string",
              "name": "memo",
              "type": "string"
            },
            {
              "internalType": "bytes",
              "name": "metadata",
              "type": "bytes"
            }
          ],
          "internalType": "struct JBDidRedeemData",
          "name": "_data",
          "type": "tuple"
        }
      ],
      "name": "didRedeem",
      "outputs": [],
      "stateMutability": "payable",
      "type": "function"
    },
    {
      "inputs": [],
      "name": "directory",
      "outputs": [
        {
          "internalType": "contract IJBDirectory",
          "name": "",
          "type": "address"
        }
      ],
      "stateMutability": "view",
      "type": "function"
    },
    {
      "inputs": [
        {
          "internalType": "uint256",
          "name": "_projectId",
          "type": "uint256"
        },
        {
          "internalType": "contract IJBDirectory",
          "name": "_directory",
          "type": "address"
        },
        {
          "components": [
            {
              "internalType": "address[]",
              "name": "allowList",
              "type": "address[]"
            }
          ],
          "internalType": "struct DeployMyDelegateData",
          "name": "_deployMyDelegateData",
          "type": "tuple"
        }
      ],
      "name": "initialize",
      "outputs": [],
      "stateMutability": "nonpayable",
      "type": "function"
    },
    {
      "inputs": [],
      "name": "jbOwner",
      "outputs": [
        {
          "internalType": "address",
          "name": "owner",
          "type": "address"
        },
        {
          "internalType": "uint88",
          "name": "projectId",
          "type": "uint88"
        },
        {
          "internalType": "uint8",
          "name": "permissionIndex",
          "type": "uint8"
        }
      ],
      "stateMutability": "view",
      "type": "function"
    },
    {
      "inputs": [],
      "name": "operatorStore",
      "outputs": [
        {
          "internalType": "contract IJBOperatorStore",
          "name": "",
          "type": "address"
        }
      ],
      "stateMutability": "view",
      "type": "function"
    },
    {
      "inputs": [],
      "name": "owner",
      "outputs": [
        {
          "internalType": "address",
          "name": "",
          "type": "address"
        }
      ],
      "stateMutability": "view",
      "type": "function"
    },
    {
      "inputs": [
        {
          "components": [
            {
              "internalType": "contract IJBPaymentTerminal",
              "name": "terminal",
              "type": "address"
            },
            {
              "internalType": "address",
              "name": "payer",
              "type": "address"
            },
            {
              "components": [
                {
                  "internalType": "address",
                  "name": "token",
                  "type": "address"
                },
                {
                  "internalType": "uint256",
                  "name": "value",
                  "type": "uint256"
                },
                {
                  "internalType": "uint256",
                  "name": "decimals",
                  "type": "uint256"
                },
                {
                  "internalType": "uint256",
                  "name": "currency",
                  "type": "uint256"
                }
              ],
              "internalType": "struct JBTokenAmount",
              "name": "amount",
              "type": "tuple"
            },
            {
              "internalType": "uint256",
              "name": "projectId",
              "type": "uint256"
            },
            {
              "internalType": "uint256",
              "name": "currentFundingCycleConfiguration",
              "type": "uint256"
            },
            {
              "internalType": "address",
              "name": "beneficiary",
              "type": "address"
            },
            {
              "internalType": "uint256",
              "name": "weight",
              "type": "uint256"
            },
            {
              "internalType": "uint256",
              "name": "reservedRate",
              "type": "uint256"
            },
            {
              "internalType": "string",
              "name": "memo",
              "type": "string"
            },
            {
              "internalType": "bytes",
              "name": "metadata",
              "type": "bytes"
            }
          ],
          "internalType": "struct JBPayParamsData",
          "name": "_data",
          "type": "tuple"
        }
      ],
      "name": "payParams",
      "outputs": [
        {
          "internalType": "uint256",
          "name": "weight",
          "type": "uint256"
        },
        {
          "internalType": "string",
          "name": "memo",
          "type": "string"
        },
        {
          "components": [
            {
              "internalType": "contract IJBPayDelegate",
              "name": "delegate",
              "type": "address"
            },
            {
              "internalType": "uint256",
              "name": "amount",
              "type": "uint256"
            }
          ],
          "internalType": "struct JBPayDelegateAllocation[]",
          "name": "delegateAllocations",
          "type": "tuple[]"
        }
      ],
      "stateMutability": "view",
      "type": "function"
    },
    {
      "inputs": [
        {
          "internalType": "address",
          "name": "",
          "type": "address"
        }
      ],
      "name": "paymentFromAddressIsAllowed",
      "outputs": [
        {
          "internalType": "bool",
          "name": "",
          "type": "bool"
        }
      ],
      "stateMutability": "view",
      "type": "function"
    },
    {
      "inputs": [],
      "name": "projectId",
      "outputs": [
        {
          "internalType": "uint256",
          "name": "",
          "type": "uint256"
        }
      ],
      "stateMutability": "view",
      "type": "function"
    },
    {
      "inputs": [],
      "name": "projects",
      "outputs": [
        {
          "internalType": "contract IJBProjects",
          "name": "",
          "type": "address"
        }
      ],
      "stateMutability": "view",
      "type": "function"
    },
    {
      "inputs": [
        {
          "components": [
            {
              "internalType": "contract IJBPaymentTerminal",
              "name": "terminal",
              "type": "address"
            },
            {
              "internalType": "address",
              "name": "holder",
              "type": "address"
            },
            {
              "internalType": "uint256",
              "name": "projectId",
              "type": "uint256"
            },
            {
              "internalType": "uint256",
              "name": "currentFundingCycleConfiguration",
              "type": "uint256"
            },
            {
              "internalType": "uint256",
              "name": "tokenCount",
              "type": "uint256"
            },
            {
              "internalType": "uint256",
              "name": "totalSupply",
              "type": "uint256"
            },
            {
              "internalType": "uint256",
              "name": "overflow",
              "type": "uint256"
            },
            {
              "components": [
                {
                  "internalType": "address",
                  "name": "token",
                  "type": "address"
                },
                {
                  "internalType": "uint256",
                  "name": "value",
                  "type": "uint256"
                },
                {
                  "internalType": "uint256",
                  "name": "decimals",
                  "type": "uint256"
                },
                {
                  "internalType": "uint256",
                  "name": "currency",
                  "type": "uint256"
                }
              ],
              "internalType": "struct JBTokenAmount",
              "name": "reclaimAmount",
              "type": "tuple"
            },
            {
              "internalType": "bool",
              "name": "useTotalOverflow",
              "type": "bool"
            },
            {
              "internalType": "uint256",
              "name": "redemptionRate",
              "type": "uint256"
            },
            {
              "internalType": "string",
              "name": "memo",
              "type": "string"
            },
            {
              "internalType": "bytes",
              "name": "metadata",
              "type": "bytes"
            }
          ],
          "internalType": "struct JBRedeemParamsData",
          "name": "_data",
          "type": "tuple"
        }
      ],
      "name": "redeemParams",
      "outputs": [
        {
          "internalType": "uint256",
          "name": "reclaimAmount",
          "type": "uint256"
        },
        {
          "internalType": "string",
          "name": "memo",
          "type": "string"
        },
        {
          "components": [
            {
              "internalType": "contract IJBRedemptionDelegate",
              "name": "delegate",
              "type": "address"
            },
            {
              "internalType": "uint256",
              "name": "amount",
              "type": "uint256"
            }
          ],
          "internalType": "struct JBRedemptionDelegateAllocation[]",
          "name": "delegateAllocations",
          "type": "tuple[]"
        }
      ],
      "stateMutability": "view",
      "type": "function"
    },
    {
      "inputs": [],
      "name": "renounceOwnership",
      "outputs": [],
      "stateMutability": "nonpayable",
      "type": "function"
    },
    {
      "inputs": [
        {
          "internalType": "uint72",
          "name": "_tier1MinContribution",
          "type": "uint72"
        },
        {
          "internalType": "uint72",
          "name": "_tier1MaxContribution",
          "type": "uint72"
        },
        {
          "internalType": "uint24",
          "name": "_tier1BonusPercentage",
          "type": "uint24"
        },
        {
          "internalType": "uint72",
          "name": "_tier2MinContribution",
          "type": "uint72"
        },
        {
          "internalType": "uint72",
          "name": "_tier2MaxContribution",
          "type": "uint72"
        },
        {
          "internalType": "uint24",
          "name": "_tier2BonusPercentage",
          "type": "uint24"
        },
        {
          "internalType": "uint72",
          "name": "_tier3MinContribution",
          "type": "uint72"
        },
        {
          "internalType": "uint72",
          "name": "_tier3MaxContribution",
          "type": "uint72"
        },
        {
          "internalType": "uint24",
          "name": "_tier3BonusPercentage",
          "type": "uint24"
        }
      ],
      "name": "setBonusTiers",
      "outputs": [],
      "stateMutability": "nonpayable",
      "type": "function"
    },
    {
      "inputs": [
        {
          "internalType": "uint8",
          "name": "_permissionIndex",
          "type": "uint8"
        }
      ],
      "name": "setPermissionIndex",
      "outputs": [],
      "stateMutability": "nonpayable",
      "type": "function"
    },
    {
      "inputs": [
        {
          "internalType": "bytes4",
          "name": "_interfaceId",
          "type": "bytes4"
        }
      ],
      "name": "supportsInterface",
      "outputs": [
        {
          "internalType": "bool",
          "name": "",
          "type": "bool"
        }
      ],
      "stateMutability": "view",
      "type": "function"
    },
    {
      "inputs": [
        {
          "internalType": "address",
          "name": "_newOwner",
          "type": "address"
        }
      ],
      "name": "transferOwnership",
      "outputs": [],
      "stateMutability": "nonpayable",
      "type": "function"
    },
    {
      "inputs": [
        {
          "internalType": "uint256",
          "name": "_projectId",
          "type": "uint256"
        }
      ],
      "name": "transferOwnershipToProject",
      "outputs": [],
      "stateMutability": "nonpayable",
      "type": "function"
    }
  ],
  "bytecode": {
    "object": "0x60c06040523480156200001157600080fd5b5060405162001ce038038062001ce083398101604081905262000034916200043a565b60a08051608080516001600160a01b038082169092529082169092529081816200005e3362000181565b505060408051610120810182526001600160481b039c8d168082529b8d166020820181905262ffffff9b8c16928201839052998d1660608201819052988d1660808201819052978b1660a08201819052968d1660c0820181905295909c1660e08d0181905293909916610100909b018b90525050600380546001600160901b031916909817690100000000000000000096870217600160901b600160f01b031916600160901b909702600160a81b600160f01b031990811697909717600160a81b95860217909755600480546001600160601b0319169093179490910293909317600160601b600160f01b0319166c010000000000000000000000009093029093169190911792029190911790556005805462ffffff1916909117905562000527565b6200018e81600062000191565b50565b6001600160581b03811615801590620001b257506001600160a01b03821615155b15620001ef576040516324abfd1160e11b81526001600160a01b03831660048201526001600160581b038216602482015260440160405180910390fd5b60408051606081018252600080546001600160a01b0381168352600160a01b81046001600160581b031660208401819052600160f81b90910460ff1693830193909352909115620002be5760a05160208301516040516331a9108f60e11b81526001600160581b0390911660048201526001600160a01b0390911690636352211e90602401602060405180830381865afa15801562000292573d6000803e3d6000fd5b505050506040513d601f19601f82011682018060405250810190620002b89190620004f5565b620002c1565b81515b604080516060810182526001600160a01b0387168082526001600160581b0387166020830181905260009290930182905281547fff000000000000000000000000000000000000000000000000000000000000001617600160a01b8302176001600160f81b03169055909150620003bf90829015620003b85760a0516040516331a9108f60e11b81526001600160581b03871660048201526001600160a01b0390911690636352211e90602401602060405180830381865afa1580156200038c573d6000803e3d6000fd5b505050506040513d601f19601f82011682018060405250810190620003b29190620004f5565b620003c5565b85620003c5565b50505050565b806001600160a01b0316826001600160a01b03167f8be0079c531659141344cd1fd0a4f28419497f9722a3daafe3b4186f6b6457e060405160405180910390a35050565b80516001600160481b03811681146200042157600080fd5b919050565b805162ffffff811681146200042157600080fd5b60008060008060008060008060006101208a8c0312156200045a57600080fd5b620004658a62000409565b98506200047560208b0162000409565b97506200048560408b0162000426565b96506200049560608b0162000409565b9550620004a560808b0162000409565b9450620004b560a08b0162000426565b9350620004c560c08b0162000409565b9250620004d560e08b0162000409565b9150620004e66101008b0162000426565b90509295985092959850929598565b6000602082840312156200050857600080fd5b81516001600160a01b03811681146200052057600080fd5b9392505050565b60805160a05161176962000577600039600081816102b40152818161070501528181610be901528181610da50152610e9d0152600081816103640152818161106b015261111401526117696000f3fe6080604052600436106101145760003560e01c8063a220d696116100a0578063d46cf17111610064578063d46cf17114610413578063da9ee8b714610433578063dd54ac2114610446578063f2fde38b14610466578063fd8f145b1461048657600080fd5b8063a220d69614610303578063a51cfd1814610323578063ad007d6314610352578063ba23c36e14610386578063c41c2f24146103f357600080fd5b806361aec7a9116100e757806361aec7a9146101a7578063715018a6146101c757806375afcd69146101dc5780638b79543c146102a25780638da5cb5b146102ee57600080fd5b806301ffc9a7146101195780632b13c58f1461014e5780633144e102146101635780633fafa12714610183575b600080fd5b34801561012557600080fd5b506101396101343660046111e3565b6104b6565b60405190151581526020015b60405180910390f35b61016161015c36600461122d565b610508565b005b34801561016f57600080fd5b5061016161017e3660046112ef565b6105d3565b34801561018f57600080fd5b5061019960015481565b604051908152602001610145565b3480156101b357600080fd5b506101616101c23660046113ee565b61066b565b3480156101d357600080fd5b5061016161067c565b3480156101e857600080fd5b50600354600454600554610244926001600160481b0380821693600160481b80840483169462ffffff600160901b8604811695600160a81b9081900486169585811695948504831694600160601b810482169492900416911689565b604080516001600160481b039a8b168152988a1660208a015262ffffff978816908901529488166060880152928716608087015290841660a0860152851660c08501529390931660e083015290911661010082015261012001610145565b3480156102ae57600080fd5b506102d67f000000000000000000000000000000000000000000000000000000000000000081565b6040516001600160a01b039091168152602001610145565b3480156102fa57600080fd5b506102d6610691565b34801561030f57600080fd5b5061016161031e366004611411565b61077e565b34801561032f57600080fd5b5061034361033e36600461122d565b6107cc565b60405161014593929190611470565b34801561035e57600080fd5b506102d67f000000000000000000000000000000000000000000000000000000000000000081565b34801561039257600080fd5b506000546103c3906001600160a01b03811690600160a01b81046001600160581b031690600160f81b900460ff1683565b604080516001600160a01b0390941684526001600160581b03909216602084015260ff1690820152606001610145565b3480156103ff57600080fd5b506002546102d6906001600160a01b031681565b34801561041f57600080fd5b5061034361042e3660046114e2565b6108af565b61016161044136600461151e565b6108d2565b34801561045257600080fd5b50610161610461366004611584565b6109f9565b34801561047257600080fd5b5061016161048136600461162c565b610b2f565b34801561049257600080fd5b506101396104a136600461162c565b60066020526000908152604090205460ff1681565b60006001600160e01b031982166371700c6960e01b14806104e757506001600160e01b0319821663da9ee8b760e01b145b8061050257506001600160e01b03198216632b13c58f60e01b145b92915050565b3415158061058a5750600254600154604051636e49181f60e01b815260048101919091523360248201526001600160a01b0390911690636e49181f90604401602060405180830381865afa158015610564573d6000803e3d6000fd5b505050506040513d601f19601f820116820180604052508101906105889190611649565b155b8061059b5750600154816020013514155b156105d05760405163dbd1cb8760e01b8152336004820152602082013560248201523460448201526064015b60405180910390fd5b50565b600154156105e057600080fd5b6001839055600280546001600160a01b0319166001600160a01b03841617905580515160005b81811015610664576001600660008560000151848151811061062a5761062a61166b565b6020908102919091018101516001600160a01b03168252810191909152604001600020805460ff1916911515919091179055600101610606565b5050505050565b610673610b7b565b6105d081610c89565b610684610b7b565b61068f600080610cdf565b565b60408051606081018252600080546001600160a01b0381168352600160a01b81046001600160581b031660208401819052600160f81b90910460ff16938301939093529182036106e15751919050565b60208101516040516331a9108f60e11b81526001600160581b0390911660048201527f00000000000000000000000000000000000000000000000000000000000000006001600160a01b031690636352211e90602401602060405180830381865afa158015610754573d6000803e3d6000fd5b505050506040513d601f19601f820116820180604052508101906107789190611681565b91505090565b610786610b7b565b80158061079957506001600160581b0381115b156107c1576040516324abfd1160e11b815260006004820152602481018290526044016105c7565b6105d0600082610cdf565b6101008101356060806107e36101a085018561169e565b8080601f01602080910402602001604051908101604052809392919081815260200183838082843760009201919091525092945060019250610823915050565b60405190808252806020026020018201604052801561086857816020015b60408051808201909152600080825260208201528152602001906001900390816108415790505b5090506040518060400160405280306001600160a01b0316815260200160008152508160008151811061089d5761089d61166b565b60200260200101819052509193909250565b60006060806108c2846101200135610f21565b92506107e361016085018561169e565b341515806109545750600254600154604051636e49181f60e01b815260048101919091523360248201526001600160a01b0390911690636e49181f90604401602060405180830381865afa15801561092e573d6000803e3d6000fd5b505050506040513d601f19601f820116820180604052508101906109529190611649565b155b806109655750600154816020013514155b156109955760405163992405f760e01b8152336004820152602082013560248201523460448201526064016105c7565b600660006109a6602084018461162c565b6001600160a01b0316815260208101919091526040016000205460ff166105d0576109d4602082018261162c565b60405163a105efc760e01b81526001600160a01b0390911660048201526024016105c7565b610a01610b7b565b60408051610120810182526001600160481b039a8b16808252998b166020820181905262ffffff998a16928201839052978b1660608201819052968b166080820181905295891660a08201819052948b1660c0820181905293909a1660e08b01819052919097166101009099018990526003805471ffffffffffffffffffffffffffffffffffff1916909817600160481b968702176bffffffffffffffffffffffff60901b1916600160901b90970268ffffffffffffffffff60a81b1990811697909717600160a81b95860217909755600480546bffffffffffffffffffffffff1916909317949091029390931771ffffffffffffffffffffffffffffffffffff60601b1916600160601b9093029093169190911792029190911790556005805462ffffff19169091179055565b610b37610b7b565b6001600160a01b038116610b70576040516324abfd1160e11b81526001600160a01b0382166004820152600060248201526044016105c7565b6105d0816000610cdf565b60408051606081018252600080546001600160a01b0381168352600160a01b81046001600160581b031660208401819052600160f81b90910460ff1693830193909352909115610c615760208201516040516331a9108f60e11b81526001600160581b0390911660048201527f00000000000000000000000000000000000000000000000000000000000000006001600160a01b031690636352211e90602401602060405180830381865afa158015610c38573d6000803e3d6000fd5b505050506040513d601f19601f82011682018060405250810190610c5c9190611681565b610c64565b81515b9050610c858183602001516001600160581b0316846040015160ff16611021565b5050565b600080546001600160f81b0316600160f81b60ff8416908102919091179091556040519081527f197cbe84f592e417694036927858418efc958896363c034f9aaa25af88953beb9060200160405180910390a150565b6001600160581b03811615801590610cff57506001600160a01b03821615155b15610d37576040516324abfd1160e11b81526001600160a01b03831660048201526001600160581b03821660248201526044016105c7565b60408051606081018252600080546001600160a01b0381168352600160a01b81046001600160581b031660208401819052600160f81b90910460ff1693830193909352909115610e1d5760208201516040516331a9108f60e11b81526001600160581b0390911660048201527f00000000000000000000000000000000000000000000000000000000000000006001600160a01b031690636352211e90602401602060405180830381865afa158015610df4573d6000803e3d6000fd5b505050506040513d601f19601f82011682018060405250810190610e189190611681565b610e20565b81515b604080516060810182526001600160a01b0387168082526001600160581b0387166020830181905260009290930182905281546001600160f81b03191617600160a01b8302176001600160f81b03169055909150610f1b90829015610f15576040516331a9108f60e11b81526001600160581b03861660048201527f00000000000000000000000000000000000000000000000000000000000000006001600160a01b031690636352211e90602401602060405180830381865afa158015610eec573d6000803e3d6000fd5b505050506040513d601f19601f82011682018060405250810190610f109190611681565b61119f565b8561119f565b50505050565b6003546000906001600160481b03168210801590610f515750600354600160481b90046001600160481b03168211155b15610f7c57600354606490610f7290600160901b900462ffffff16846116ec565b6105029190611711565b600354600160a81b90046001600160481b03168210801590610fa957506004546001600160481b03168211155b15610fca57600454606490610f7290600160481b900462ffffff16846116ec565b600454600160601b90046001600160481b03168210801590610ffe5750600454600160a81b90046001600160481b03168211155b1561101857600554606490610f729062ffffff16846116ec565b5090565b919050565b336001600160a01b03841681148015906110d8575060405163c161c93f60e01b81526001600160a01b038281166004830152858116602483015260448201859052606482018490527f0000000000000000000000000000000000000000000000000000000000000000169063c161c93f90608401602060405180830381865afa1580156110b2573d6000803e3d6000fd5b505050506040513d601f19601f820116820180604052508101906110d69190611649565b155b8015611181575060405163c161c93f60e01b81526001600160a01b038281166004830152858116602483015260006044830152606482018490527f0000000000000000000000000000000000000000000000000000000000000000169063c161c93f90608401602060405180830381865afa15801561115b573d6000803e3d6000fd5b505050506040513d601f19601f8201168201806040525081019061117f9190611649565b155b15610f1b5760405163075fd2b160e01b815260040160405180910390fd5b806001600160a01b0316826001600160a01b03167f8be0079c531659141344cd1fd0a4f28419497f9722a3daafe3b4186f6b6457e060405160405180910390a35050565b6000602082840312156111f557600080fd5b81356001600160e01b03198116811461120d57600080fd5b9392505050565b60006101e0828403121561122757600080fd5b50919050565b60006020828403121561123f57600080fd5b813567ffffffffffffffff81111561125657600080fd5b61126284828501611214565b949350505050565b6001600160a01b03811681146105d057600080fd5b634e487b7160e01b600052604160045260246000fd5b6040516020810167ffffffffffffffff811182821017156112b8576112b861127f565b60405290565b604051601f8201601f1916810167ffffffffffffffff811182821017156112e7576112e761127f565b604052919050565b60008060006060848603121561130457600080fd5b833592506020808501356113178161126a565b9250604085013567ffffffffffffffff8082111561133457600080fd5b818701915082828903121561134857600080fd5b611350611295565b82358281111561135f57600080fd5b80840193505088601f84011261137457600080fd5b8235828111156113865761138661127f565b8060051b92506113978584016112be565b818152928401850192858101908b8511156113b157600080fd5b948601945b848610156113db57853592506113cb8361126a565b82825294860194908601906113b6565b8352509699959850965093945050505050565b60006020828403121561140057600080fd5b813560ff8116811461120d57600080fd5b60006020828403121561142357600080fd5b5035919050565b6000815180845260005b8181101561145057602081850181015186830182015201611434565b506000602082860101526020601f19601f83011685010191505092915050565b8381526000602060608184015261148a606084018661142a565b83810360408581019190915285518083528387019284019060005b818110156114d357845180516001600160a01b031684528601518684015293850193918301916001016114a5565b50909998505050505050505050565b6000602082840312156114f457600080fd5b813567ffffffffffffffff81111561150b57600080fd5b82016101a0818503121561120d57600080fd5b60006020828403121561153057600080fd5b813567ffffffffffffffff81111561154757600080fd5b8201610200818503121561120d57600080fd5b80356001600160481b038116811461101c57600080fd5b803562ffffff8116811461101c57600080fd5b60008060008060008060008060006101208a8c0312156115a357600080fd5b6115ac8a61155a565b98506115ba60208b0161155a565b97506115c860408b01611571565b96506115d660608b0161155a565b95506115e460808b0161155a565b94506115f260a08b01611571565b935061160060c08b0161155a565b925061160e60e08b0161155a565b915061161d6101008b01611571565b90509295985092959850929598565b60006020828403121561163e57600080fd5b813561120d8161126a565b60006020828403121561165b57600080fd5b8151801515811461120d57600080fd5b634e487b7160e01b600052603260045260246000fd5b60006020828403121561169357600080fd5b815161120d8161126a565b6000808335601e198436030181126116b557600080fd5b83018035915067ffffffffffffffff8211156116d057600080fd5b6020019150368190038213156116e557600080fd5b9250929050565b808202811582820484141761050257634e487b7160e01b600052601160045260246000fd5b60008261172e57634e487b7160e01b600052601260045260246000fd5b50049056fea2646970667358221220f5d92b8e80272bd29f9104043a7a6ea18ed2894748458236851fe1cb654a12b964736f6c63430008140033",
    "linkReferences": {}
  },
  "methodIdentifiers": {
    "Tierinfo()": "75afcd69",
    "didPay((address,uint256,uint256,(address,uint256,uint256,uint256),(address,uint256,uint256,uint256),uint256,address,bool,string,bytes))": "da9ee8b7",
    "didRedeem((address,uint256,uint256,uint256,(address,uint256,uint256,uint256),(address,uint256,uint256,uint256),address,string,bytes))": "2b13c58f",
    "directory()": "c41c2f24",
    "initialize(uint256,address,(address[]))": "3144e102",
    "jbOwner()": "ba23c36e",
    "operatorStore()": "ad007d63",
    "owner()": "8da5cb5b",
    "payParams((address,address,(address,uint256,uint256,uint256),uint256,uint256,address,uint256,uint256,string,bytes))": "d46cf171",
    "paymentFromAddressIsAllowed(address)": "fd8f145b",
    "projectId()": "3fafa127",
    "projects()": "8b79543c",
    "redeemParams((address,address,uint256,uint256,uint256,uint256,uint256,(address,uint256,uint256,uint256),bool,uint256,string,bytes))": "a51cfd18",
    "renounceOwnership()": "715018a6",
    "setBonusTiers(uint72,uint72,uint24,uint72,uint72,uint24,uint72,uint72,uint24)": "dd54ac21",
    "setPermissionIndex(uint8)": "61aec7a9",
    "supportsInterface(bytes4)": "01ffc9a7",
    "transferOwnership(address)": "f2fde38b",
    "transferOwnershipToProject(uint256)": "a220d696"
  },
  "id": 143
}