{
  "abi": [
    {
      "inputs": [
        {
          "internalType": "uint24",
          "name": "_tier1BonusPercentage",
          "type": "uint24"
        },
        {
          "internalType": "uint72",
          "name": "_tier1MinContribution",
          "type": "uint72"
        },
        {
          "internalType": "uint72",
          "name": "_tier1MaxContribution",
          "type": "uint72"
        },
        {
          "internalType": "uint24",
          "name": "_tier2BonusPercentage",
          "type": "uint24"
        },
        {
          "internalType": "uint72",
          "name": "_tier2MinContribution",
          "type": "uint72"
        },
        {
          "internalType": "uint72",
          "name": "_tier2MaxContribution",
          "type": "uint72"
        },
        {
          "internalType": "uint24",
          "name": "_tier3BonusPercentage",
          "type": "uint24"
        },
        {
          "internalType": "uint72",
          "name": "_tier3MinContribution",
          "type": "uint72"
        },
        {
          "internalType": "uint72",
          "name": "_tier3MaxContribution",
          "type": "uint72"
        }
      ],
      "stateMutability": "nonpayable",
      "type": "constructor"
    },
    {
      "inputs": [
        {
          "internalType": "address",
          "name": "caller",
          "type": "address"
        },
        {
          "internalType": "uint256",
          "name": "projectId",
          "type": "uint256"
        },
        {
          "internalType": "uint256",
          "name": "value",
          "type": "uint256"
        }
      ],
      "name": "INVALID_PAYMENT_EVENT",
      "type": "error"
    },
    {
      "inputs": [
        {
          "internalType": "address",
          "name": "caller",
          "type": "address"
        },
        {
          "internalType": "uint256",
          "name": "projectId",
          "type": "uint256"
        },
        {
          "internalType": "uint256",
          "name": "value",
          "type": "uint256"
        }
      ],
      "name": "INVALID_REDEMPTION_EVENT",
      "type": "error"
    },
    {
      "inputs": [
        {
          "internalType": "address",
          "name": "payer",
          "type": "address"
        }
      ],
      "name": "PAYER_NOT_ON_ALLOWLIST",
      "type": "error"
    },
    {
      "inputs": [],
      "name": "Tierinfo",
      "outputs": [
        {
          "internalType": "uint24",
          "name": "tier1BonusPercentage",
          "type": "uint24"
        },
        {
          "internalType": "uint72",
          "name": "tier1MinContribution",
          "type": "uint72"
        },
        {
          "internalType": "uint72",
          "name": "tier1MaxContribution",
          "type": "uint72"
        },
        {
          "internalType": "uint24",
          "name": "tier2BonusPercentage",
          "type": "uint24"
        },
        {
          "internalType": "uint72",
          "name": "tier2MinContribution",
          "type": "uint72"
        },
        {
          "internalType": "uint72",
          "name": "tier2MaxContribution",
          "type": "uint72"
        },
        {
          "internalType": "uint24",
          "name": "tier3BonusPercentage",
          "type": "uint24"
        },
        {
          "internalType": "uint72",
          "name": "tier3MinContribution",
          "type": "uint72"
        },
        {
          "internalType": "uint72",
          "name": "tier3MaxContribution",
          "type": "uint72"
        }
      ],
      "stateMutability": "view",
      "type": "function"
    },
    {
      "inputs": [
        {
          "components": [
            {
              "internalType": "address",
              "name": "payer",
              "type": "address"
            },
            {
              "internalType": "uint256",
              "name": "projectId",
              "type": "uint256"
            },
            {
              "internalType": "uint256",
              "name": "currentFundingCycleConfiguration",
              "type": "uint256"
            },
            {
              "components": [
                {
                  "internalType": "address",
                  "name": "token",
                  "type": "address"
                },
                {
                  "internalType": "uint256",
                  "name": "value",
                  "type": "uint256"
                },
                {
                  "internalType": "uint256",
                  "name": "decimals",
                  "type": "uint256"
                },
                {
                  "internalType": "uint256",
                  "name": "currency",
                  "type": "uint256"
                }
              ],
              "internalType": "struct JBTokenAmount",
              "name": "amount",
              "type": "tuple"
            },
            {
              "components": [
                {
                  "internalType": "address",
                  "name": "token",
                  "type": "address"
                },
                {
                  "internalType": "uint256",
                  "name": "value",
                  "type": "uint256"
                },
                {
                  "internalType": "uint256",
                  "name": "decimals",
                  "type": "uint256"
                },
                {
                  "internalType": "uint256",
                  "name": "currency",
                  "type": "uint256"
                }
              ],
              "internalType": "struct JBTokenAmount",
              "name": "forwardedAmount",
              "type": "tuple"
            },
            {
              "internalType": "uint256",
              "name": "projectTokenCount",
              "type": "uint256"
            },
            {
              "internalType": "address",
              "name": "beneficiary",
              "type": "address"
            },
            {
              "internalType": "bool",
              "name": "preferClaimedTokens",
              "type": "bool"
            },
            {
              "internalType": "string",
              "name": "memo",
              "type": "string"
            },
            {
              "internalType": "bytes",
              "name": "metadata",
              "type": "bytes"
            }
          ],
          "internalType": "struct JBDidPayData",
          "name": "_data",
          "type": "tuple"
        }
      ],
      "name": "didPay",
      "outputs": [],
      "stateMutability": "payable",
      "type": "function"
    },
    {
      "inputs": [
        {
          "components": [
            {
              "internalType": "address",
              "name": "holder",
              "type": "address"
            },
            {
              "internalType": "uint256",
              "name": "projectId",
              "type": "uint256"
            },
            {
              "internalType": "uint256",
              "name": "currentFundingCycleConfiguration",
              "type": "uint256"
            },
            {
              "internalType": "uint256",
              "name": "projectTokenCount",
              "type": "uint256"
            },
            {
              "components": [
                {
                  "internalType": "address",
                  "name": "token",
                  "type": "address"
                },
                {
                  "internalType": "uint256",
                  "name": "value",
                  "type": "uint256"
                },
                {
                  "internalType": "uint256",
                  "name": "decimals",
                  "type": "uint256"
                },
                {
                  "internalType": "uint256",
                  "name": "currency",
                  "type": "uint256"
                }
              ],
              "internalType": "struct JBTokenAmount",
              "name": "reclaimedAmount",
              "type": "tuple"
            },
            {
              "components": [
                {
                  "internalType": "address",
                  "name": "token",
                  "type": "address"
                },
                {
                  "internalType": "uint256",
                  "name": "value",
                  "type": "uint256"
                },
                {
                  "internalType": "uint256",
                  "name": "decimals",
                  "type": "uint256"
                },
                {
                  "internalType": "uint256",
                  "name": "currency",
                  "type": "uint256"
                }
              ],
              "internalType": "struct JBTokenAmount",
              "name": "forwardedAmount",
              "type": "tuple"
            },
            {
              "internalType": "address payable",
              "name": "beneficiary",
              "type": "address"
            },
            {
              "internalType": "string",
              "name": "memo",
              "type": "string"
            },
            {
              "internalType": "bytes",
              "name": "metadata",
              "type": "bytes"
            }
          ],
          "internalType": "struct JBDidRedeemData",
          "name": "_data",
          "type": "tuple"
        }
      ],
      "name": "didRedeem",
      "outputs": [],
      "stateMutability": "payable",
      "type": "function"
    },
    {
      "inputs": [],
      "name": "directory",
      "outputs": [
        {
          "internalType": "contract IJBDirectory",
          "name": "",
          "type": "address"
        }
      ],
      "stateMutability": "view",
      "type": "function"
    },
    {
      "inputs": [
        {
          "internalType": "uint256",
          "name": "_projectId",
          "type": "uint256"
        },
        {
          "internalType": "contract IJBDirectory",
          "name": "_directory",
          "type": "address"
        },
        {
          "components": [
            {
              "internalType": "address[]",
              "name": "allowList",
              "type": "address[]"
            }
          ],
          "internalType": "struct DeployMyDelegateData",
          "name": "_deployMyDelegateData",
          "type": "tuple"
        }
      ],
      "name": "initialize",
      "outputs": [],
      "stateMutability": "nonpayable",
      "type": "function"
    },
    {
      "inputs": [
        {
          "components": [
            {
              "internalType": "contract IJBPaymentTerminal",
              "name": "terminal",
              "type": "address"
            },
            {
              "internalType": "address",
              "name": "payer",
              "type": "address"
            },
            {
              "components": [
                {
                  "internalType": "address",
                  "name": "token",
                  "type": "address"
                },
                {
                  "internalType": "uint256",
                  "name": "value",
                  "type": "uint256"
                },
                {
                  "internalType": "uint256",
                  "name": "decimals",
                  "type": "uint256"
                },
                {
                  "internalType": "uint256",
                  "name": "currency",
                  "type": "uint256"
                }
              ],
              "internalType": "struct JBTokenAmount",
              "name": "amount",
              "type": "tuple"
            },
            {
              "internalType": "uint256",
              "name": "projectId",
              "type": "uint256"
            },
            {
              "internalType": "uint256",
              "name": "currentFundingCycleConfiguration",
              "type": "uint256"
            },
            {
              "internalType": "address",
              "name": "beneficiary",
              "type": "address"
            },
            {
              "internalType": "uint256",
              "name": "weight",
              "type": "uint256"
            },
            {
              "internalType": "uint256",
              "name": "reservedRate",
              "type": "uint256"
            },
            {
              "internalType": "string",
              "name": "memo",
              "type": "string"
            },
            {
              "internalType": "bytes",
              "name": "metadata",
              "type": "bytes"
            }
          ],
          "internalType": "struct JBPayParamsData",
          "name": "_data",
          "type": "tuple"
        }
      ],
      "name": "payParams",
      "outputs": [
        {
          "internalType": "uint256",
          "name": "weight",
          "type": "uint256"
        },
        {
          "internalType": "string",
          "name": "memo",
          "type": "string"
        },
        {
          "components": [
            {
              "internalType": "contract IJBPayDelegate",
              "name": "delegate",
              "type": "address"
            },
            {
              "internalType": "uint256",
              "name": "amount",
              "type": "uint256"
            }
          ],
          "internalType": "struct JBPayDelegateAllocation[]",
          "name": "delegateAllocations",
          "type": "tuple[]"
        }
      ],
      "stateMutability": "view",
      "type": "function"
    },
    {
      "inputs": [
        {
          "internalType": "address",
          "name": "",
          "type": "address"
        }
      ],
      "name": "paymentFromAddressIsAllowed",
      "outputs": [
        {
          "internalType": "bool",
          "name": "",
          "type": "bool"
        }
      ],
      "stateMutability": "view",
      "type": "function"
    },
    {
      "inputs": [],
      "name": "projectId",
      "outputs": [
        {
          "internalType": "uint256",
          "name": "",
          "type": "uint256"
        }
      ],
      "stateMutability": "view",
      "type": "function"
    },
    {
      "inputs": [
        {
          "components": [
            {
              "internalType": "contract IJBPaymentTerminal",
              "name": "terminal",
              "type": "address"
            },
            {
              "internalType": "address",
              "name": "holder",
              "type": "address"
            },
            {
              "internalType": "uint256",
              "name": "projectId",
              "type": "uint256"
            },
            {
              "internalType": "uint256",
              "name": "currentFundingCycleConfiguration",
              "type": "uint256"
            },
            {
              "internalType": "uint256",
              "name": "tokenCount",
              "type": "uint256"
            },
            {
              "internalType": "uint256",
              "name": "totalSupply",
              "type": "uint256"
            },
            {
              "internalType": "uint256",
              "name": "overflow",
              "type": "uint256"
            },
            {
              "components": [
                {
                  "internalType": "address",
                  "name": "token",
                  "type": "address"
                },
                {
                  "internalType": "uint256",
                  "name": "value",
                  "type": "uint256"
                },
                {
                  "internalType": "uint256",
                  "name": "decimals",
                  "type": "uint256"
                },
                {
                  "internalType": "uint256",
                  "name": "currency",
                  "type": "uint256"
                }
              ],
              "internalType": "struct JBTokenAmount",
              "name": "reclaimAmount",
              "type": "tuple"
            },
            {
              "internalType": "bool",
              "name": "useTotalOverflow",
              "type": "bool"
            },
            {
              "internalType": "uint256",
              "name": "redemptionRate",
              "type": "uint256"
            },
            {
              "internalType": "string",
              "name": "memo",
              "type": "string"
            },
            {
              "internalType": "bytes",
              "name": "metadata",
              "type": "bytes"
            }
          ],
          "internalType": "struct JBRedeemParamsData",
          "name": "_data",
          "type": "tuple"
        }
      ],
      "name": "redeemParams",
      "outputs": [
        {
          "internalType": "uint256",
          "name": "reclaimAmount",
          "type": "uint256"
        },
        {
          "internalType": "string",
          "name": "memo",
          "type": "string"
        },
        {
          "components": [
            {
              "internalType": "contract IJBRedemptionDelegate",
              "name": "delegate",
              "type": "address"
            },
            {
              "internalType": "uint256",
              "name": "amount",
              "type": "uint256"
            }
          ],
          "internalType": "struct JBRedemptionDelegateAllocation[]",
          "name": "delegateAllocations",
          "type": "tuple[]"
        }
      ],
      "stateMutability": "view",
      "type": "function"
    },
    {
      "inputs": [
        {
          "internalType": "uint24",
          "name": "_tier1BonusPercentage",
          "type": "uint24"
        },
        {
          "internalType": "uint72",
          "name": "_tier1MinContribution",
          "type": "uint72"
        },
        {
          "internalType": "uint72",
          "name": "_tier1MaxContribution",
          "type": "uint72"
        },
        {
          "internalType": "uint24",
          "name": "_tier2BonusPercentage",
          "type": "uint24"
        },
        {
          "internalType": "uint72",
          "name": "_tier2MinContribution",
          "type": "uint72"
        },
        {
          "internalType": "uint72",
          "name": "_tier2MaxContribution",
          "type": "uint72"
        },
        {
          "internalType": "uint24",
          "name": "_tier3BonusPercentage",
          "type": "uint24"
        },
        {
          "internalType": "uint72",
          "name": "_tier3MinContribution",
          "type": "uint72"
        },
        {
          "internalType": "uint72",
          "name": "_tier3MaxContribution",
          "type": "uint72"
        }
      ],
      "name": "setBonusTiers",
      "outputs": [],
      "stateMutability": "nonpayable",
      "type": "function"
    },
    {
      "inputs": [
        {
          "internalType": "bytes4",
          "name": "_interfaceId",
          "type": "bytes4"
        }
      ],
      "name": "supportsInterface",
      "outputs": [
        {
          "internalType": "bool",
          "name": "",
          "type": "bool"
        }
      ],
      "stateMutability": "view",
      "type": "function"
    }
  ],
  "bytecode": {
    "object": "0x60806040523480156200001157600080fd5b506040516200108738038062001087833981016040819052620000349162000195565b604080516101208101825262ffffff9a8b168082526001600160481b039a8b1660208301819052998b16928201839052978b1660608201819052968a1660808201819052958a1660a0820181905294909a1660c08b0181905292891660e08b0181905291909816610100909901899052600280546001600160601b031916909617630100000090970296909617600160601b600160c01b0319166c0100000000000000000000000090970262ffffff60a81b191696909617600160a81b93840217909355600380546001600160901b031916909117690100000000000000000090930292909217600160901b600160f01b031916600160901b909402600160a81b600160f01b0319169390931792909102919091179055600480546001600160481b031916909117905562000250565b805162ffffff811681146200017857600080fd5b919050565b80516001600160481b03811681146200017857600080fd5b60008060008060008060008060006101208a8c031215620001b557600080fd5b620001c08a62000164565b9850620001d060208b016200017d565b9750620001e060408b016200017d565b9650620001f060608b0162000164565b95506200020060808b016200017d565b94506200021060a08b016200017d565b93506200022060c08b0162000164565b92506200023060e08b016200017d565b9150620002416101008b016200017d565b90509295985092959850929598565b610e2780620002606000396000f3fe60806040526004361061009c5760003560e01c806384e24c061161006457806384e24c06146101f9578063a51cfd181461034f578063c41c2f241461037e578063d46cf171146103b6578063da9ee8b7146103d6578063fd8f145b146103e957600080fd5b806301ffc9a7146100a15780632b13c58f146100d65780633144e102146100eb5780633fafa1271461010b57806375afcd691461012f575b600080fd5b3480156100ad57600080fd5b506100c16100bc3660046108fa565b610419565b60405190151581526020015b60405180910390f35b6100e96100e4366004610944565b61046b565b005b3480156100f757600080fd5b506100e9610106366004610a06565b610536565b34801561011757600080fd5b5061012160005481565b6040519081526020016100cd565b34801561013b57600080fd5b5060025460035460045461019c9262ffffff808216936001600160481b0363010000008404811694600160601b8504821694600160a81b9081900485169484841694600160481b8104851694600160901b8204909216939290048116911689565b6040805162ffffff9a8b1681526001600160481b03998a166020820152978916908801529488166060870152928616608086015290851660a085015290941660c083015292821660e08201529116610100820152610120016100cd565b34801561020557600080fd5b506100e9610214366004610b2f565b604080516101208101825262ffffff9a8b168082526001600160481b039a8b1660208301819052998b16928201839052978b1660608201819052968a1660808201819052958a1660a0820181905294909a1660c08b0181905292891660e08b0181905291909816610100909901899052600280546bffffffffffffffffffffffff19169096176301000000909702969096176bffffffffffffffffffffffff60601b1916600160601b90970262ffffff60a81b191696909617600160a81b938402179093556003805471ffffffffffffffffffffffffffffffffffff1916909117600160481b909302929092176bffffffffffffffffffffffff60901b1916600160901b90940268ffffffffffffffffff60a81b191693909317929091029190911790556004805468ffffffffffffffffff19169091179055565b34801561035b57600080fd5b5061036f61036a366004610944565b6105cd565b6040516100cd93929190610c1d565b34801561038a57600080fd5b5060015461039e906001600160a01b031681565b6040516001600160a01b0390911681526020016100cd565b3480156103c257600080fd5b5061036f6103d1366004610c8f565b6106b0565b6100e96103e4366004610ccb565b6106d3565b3480156103f557600080fd5b506100c1610404366004610d07565b60056020526000908152604090205460ff1681565b60006001600160e01b031982166371700c6960e01b148061044a57506001600160e01b0319821663da9ee8b760e01b145b8061046557506001600160e01b03198216632b13c58f60e01b145b92915050565b341515806104ed5750600154600054604051636e49181f60e01b815260048101919091523360248201526001600160a01b0390911690636e49181f90604401602060405180830381865afa1580156104c7573d6000803e3d6000fd5b505050506040513d601f19601f820116820180604052508101906104eb9190610d24565b155b806104fe5750600054816020013514155b156105335760405163dbd1cb8760e01b8152336004820152602082013560248201523460448201526064015b60405180910390fd5b50565b6000541561054357600080fd5b6000838155600180546001600160a01b0319166001600160a01b038516179055815151905b818110156105c6576001600560008560000151848151811061058c5761058c610d46565b6020908102919091018101516001600160a01b03168252810191909152604001600020805460ff1916911515919091179055600101610568565b5050505050565b6101008101356060806105e46101a0850185610d5c565b8080601f01602080910402602001604051908101604052809392919081815260200183838082843760009201919091525092945060019250610624915050565b60405190808252806020026020018201604052801561066957816020015b60408051808201909152600080825260208201528152602001906001900390816106425790505b5090506040518060400160405280306001600160a01b0316815260200160008152508160008151811061069e5761069e610d46565b60200260200101819052509193909250565b60006060806106c38461012001356107fa565b92506105e4610160850185610d5c565b341515806107555750600154600054604051636e49181f60e01b815260048101919091523360248201526001600160a01b0390911690636e49181f90604401602060405180830381865afa15801561072f573d6000803e3d6000fd5b505050506040513d601f19601f820116820180604052508101906107539190610d24565b155b806107665750600054816020013514155b156107965760405163992405f760e01b81523360048201526020820135602482015234604482015260640161052a565b600560006107a76020840184610d07565b6001600160a01b0316815260208101919091526040016000205460ff16610533576107d56020820182610d07565b60405163a105efc760e01b81526001600160a01b03909116600482015260240161052a565b600254600090630100000090046001600160481b031682108015906108315750600254600160601b90046001600160481b03168211155b156108555760025460649061084b9062ffffff1684610daa565b6104659190610dcf565b6003546001600160481b031682108015906108825750600354600160481b90046001600160481b03168211155b156108a35760025460649061084b90600160a81b900462ffffff1684610daa565b600354600160a81b90046001600160481b031682108015906108d057506004546001600160481b03168211155b156108f15760035460649061084b90600160901b900462ffffff1684610daa565b5090565b919050565b60006020828403121561090c57600080fd5b81356001600160e01b03198116811461092457600080fd5b9392505050565b60006101e0828403121561093e57600080fd5b50919050565b60006020828403121561095657600080fd5b813567ffffffffffffffff81111561096d57600080fd5b6109798482850161092b565b949350505050565b6001600160a01b038116811461053357600080fd5b634e487b7160e01b600052604160045260246000fd5b6040516020810167ffffffffffffffff811182821017156109cf576109cf610996565b60405290565b604051601f8201601f1916810167ffffffffffffffff811182821017156109fe576109fe610996565b604052919050565b600080600060608486031215610a1b57600080fd5b83359250602080850135610a2e81610981565b9250604085013567ffffffffffffffff80821115610a4b57600080fd5b8187019150828289031215610a5f57600080fd5b610a676109ac565b823582811115610a7657600080fd5b80840193505088601f840112610a8b57600080fd5b823582811115610a9d57610a9d610996565b8060051b9250610aae8584016109d5565b818152928401850192858101908b851115610ac857600080fd5b948601945b84861015610af25785359250610ae283610981565b8282529486019490860190610acd565b8352509699959850965093945050505050565b803562ffffff811681146108f557600080fd5b80356001600160481b03811681146108f557600080fd5b60008060008060008060008060006101208a8c031215610b4e57600080fd5b610b578a610b05565b9850610b6560208b01610b18565b9750610b7360408b01610b18565b9650610b8160608b01610b05565b9550610b8f60808b01610b18565b9450610b9d60a08b01610b18565b9350610bab60c08b01610b05565b9250610bb960e08b01610b18565b9150610bc86101008b01610b18565b90509295985092959850929598565b6000815180845260005b81811015610bfd57602081850181015186830182015201610be1565b506000602082860101526020601f19601f83011685010191505092915050565b83815260006020606081840152610c376060840186610bd7565b83810360408581019190915285518083528387019284019060005b81811015610c8057845180516001600160a01b03168452860151868401529385019391830191600101610c52565b50909998505050505050505050565b600060208284031215610ca157600080fd5b813567ffffffffffffffff811115610cb857600080fd5b82016101a0818503121561092457600080fd5b600060208284031215610cdd57600080fd5b813567ffffffffffffffff811115610cf457600080fd5b8201610200818503121561092457600080fd5b600060208284031215610d1957600080fd5b813561092481610981565b600060208284031215610d3657600080fd5b8151801515811461092457600080fd5b634e487b7160e01b600052603260045260246000fd5b6000808335601e19843603018112610d7357600080fd5b83018035915067ffffffffffffffff821115610d8e57600080fd5b602001915036819003821315610da357600080fd5b9250929050565b808202811582820484141761046557634e487b7160e01b600052601160045260246000fd5b600082610dec57634e487b7160e01b600052601260045260246000fd5b50049056fea26469706673582212207532213fa532950b91921dc72c8f35020f6016e6f53122aac38c2d0b089f06e464736f6c63430008140033",
    "linkReferences": {}
  },
  "methodIdentifiers": {
    "Tierinfo()": "75afcd69",
    "didPay((address,uint256,uint256,(address,uint256,uint256,uint256),(address,uint256,uint256,uint256),uint256,address,bool,string,bytes))": "da9ee8b7",
    "didRedeem((address,uint256,uint256,uint256,(address,uint256,uint256,uint256),(address,uint256,uint256,uint256),address,string,bytes))": "2b13c58f",
    "directory()": "c41c2f24",
    "initialize(uint256,address,(address[]))": "3144e102",
    "payParams((address,address,(address,uint256,uint256,uint256),uint256,uint256,address,uint256,uint256,string,bytes))": "d46cf171",
    "paymentFromAddressIsAllowed(address)": "fd8f145b",
    "projectId()": "3fafa127",
    "redeemParams((address,address,uint256,uint256,uint256,uint256,uint256,(address,uint256,uint256,uint256),bool,uint256,string,bytes))": "a51cfd18",
    "setBonusTiers(uint24,uint72,uint72,uint24,uint72,uint72,uint24,uint72,uint72)": "84e24c06",
    "supportsInterface(bytes4)": "01ffc9a7"
  },
  "id": 139
}