{
  "abi": [
    {
      "inputs": [
        {
          "internalType": "uint256",
          "name": "_payoutbonus1",
          "type": "uint256"
        },
        {
          "internalType": "uint256",
          "name": "_payoutbonus2",
          "type": "uint256"
        },
        {
          "internalType": "uint256",
          "name": "_payoutbonus3",
          "type": "uint256"
        },
        {
          "internalType": "uint256",
          "name": "_bonusThreshold1",
          "type": "uint256"
        },
        {
          "internalType": "uint256",
          "name": "_bonusThreshold2",
          "type": "uint256"
        },
        {
          "internalType": "uint256",
          "name": "_bonusThreshold3",
          "type": "uint256"
        },
        {
          "internalType": "bool",
          "name": "_smallContributionBonus",
          "type": "bool"
        }
      ],
      "stateMutability": "nonpayable",
      "type": "constructor"
    },
    {
      "inputs": [
        {
          "internalType": "address",
          "name": "caller",
          "type": "address"
        },
        {
          "internalType": "uint256",
          "name": "projectId",
          "type": "uint256"
        },
        {
          "internalType": "uint256",
          "name": "value",
          "type": "uint256"
        }
      ],
      "name": "INVALID_PAYMENT_EVENT",
      "type": "error"
    },
    {
      "inputs": [
        {
          "internalType": "address",
          "name": "caller",
          "type": "address"
        },
        {
          "internalType": "uint256",
          "name": "projectId",
          "type": "uint256"
        },
        {
          "internalType": "uint256",
          "name": "value",
          "type": "uint256"
        }
      ],
      "name": "INVALID_REDEMPTION_EVENT",
      "type": "error"
    },
    {
      "inputs": [
        {
          "internalType": "address",
          "name": "payer",
          "type": "address"
        }
      ],
      "name": "PAYER_NOT_ON_ALLOWLIST",
      "type": "error"
    },
    {
      "inputs": [],
      "name": "SafetyNumber",
      "outputs": [
        {
          "internalType": "uint256",
          "name": "",
          "type": "uint256"
        }
      ],
      "stateMutability": "view",
      "type": "function"
    },
    {
      "inputs": [
        {
          "components": [
            {
              "internalType": "address",
              "name": "payer",
              "type": "address"
            },
            {
              "internalType": "uint256",
              "name": "projectId",
              "type": "uint256"
            },
            {
              "internalType": "uint256",
              "name": "currentFundingCycleConfiguration",
              "type": "uint256"
            },
            {
              "components": [
                {
                  "internalType": "address",
                  "name": "token",
                  "type": "address"
                },
                {
                  "internalType": "uint256",
                  "name": "value",
                  "type": "uint256"
                },
                {
                  "internalType": "uint256",
                  "name": "decimals",
                  "type": "uint256"
                },
                {
                  "internalType": "uint256",
                  "name": "currency",
                  "type": "uint256"
                }
              ],
              "internalType": "struct JBTokenAmount",
              "name": "amount",
              "type": "tuple"
            },
            {
              "components": [
                {
                  "internalType": "address",
                  "name": "token",
                  "type": "address"
                },
                {
                  "internalType": "uint256",
                  "name": "value",
                  "type": "uint256"
                },
                {
                  "internalType": "uint256",
                  "name": "decimals",
                  "type": "uint256"
                },
                {
                  "internalType": "uint256",
                  "name": "currency",
                  "type": "uint256"
                }
              ],
              "internalType": "struct JBTokenAmount",
              "name": "forwardedAmount",
              "type": "tuple"
            },
            {
              "internalType": "uint256",
              "name": "projectTokenCount",
              "type": "uint256"
            },
            {
              "internalType": "address",
              "name": "beneficiary",
              "type": "address"
            },
            {
              "internalType": "bool",
              "name": "preferClaimedTokens",
              "type": "bool"
            },
            {
              "internalType": "string",
              "name": "memo",
              "type": "string"
            },
            {
              "internalType": "bytes",
              "name": "metadata",
              "type": "bytes"
            }
          ],
          "internalType": "struct JBDidPayData",
          "name": "_data",
          "type": "tuple"
        }
      ],
      "name": "didPay",
      "outputs": [],
      "stateMutability": "payable",
      "type": "function"
    },
    {
      "inputs": [
        {
          "components": [
            {
              "internalType": "address",
              "name": "holder",
              "type": "address"
            },
            {
              "internalType": "uint256",
              "name": "projectId",
              "type": "uint256"
            },
            {
              "internalType": "uint256",
              "name": "currentFundingCycleConfiguration",
              "type": "uint256"
            },
            {
              "internalType": "uint256",
              "name": "projectTokenCount",
              "type": "uint256"
            },
            {
              "components": [
                {
                  "internalType": "address",
                  "name": "token",
                  "type": "address"
                },
                {
                  "internalType": "uint256",
                  "name": "value",
                  "type": "uint256"
                },
                {
                  "internalType": "uint256",
                  "name": "decimals",
                  "type": "uint256"
                },
                {
                  "internalType": "uint256",
                  "name": "currency",
                  "type": "uint256"
                }
              ],
              "internalType": "struct JBTokenAmount",
              "name": "reclaimedAmount",
              "type": "tuple"
            },
            {
              "components": [
                {
                  "internalType": "address",
                  "name": "token",
                  "type": "address"
                },
                {
                  "internalType": "uint256",
                  "name": "value",
                  "type": "uint256"
                },
                {
                  "internalType": "uint256",
                  "name": "decimals",
                  "type": "uint256"
                },
                {
                  "internalType": "uint256",
                  "name": "currency",
                  "type": "uint256"
                }
              ],
              "internalType": "struct JBTokenAmount",
              "name": "forwardedAmount",
              "type": "tuple"
            },
            {
              "internalType": "address payable",
              "name": "beneficiary",
              "type": "address"
            },
            {
              "internalType": "string",
              "name": "memo",
              "type": "string"
            },
            {
              "internalType": "bytes",
              "name": "metadata",
              "type": "bytes"
            }
          ],
          "internalType": "struct JBDidRedeemData",
          "name": "_data",
          "type": "tuple"
        }
      ],
      "name": "didRedeem",
      "outputs": [],
      "stateMutability": "payable",
      "type": "function"
    },
    {
      "inputs": [],
      "name": "directory",
      "outputs": [
        {
          "internalType": "contract IJBDirectory",
          "name": "",
          "type": "address"
        }
      ],
      "stateMutability": "view",
      "type": "function"
    },
    {
      "inputs": [
        {
          "internalType": "uint256",
          "name": "_projectId",
          "type": "uint256"
        },
        {
          "internalType": "contract IJBDirectory",
          "name": "_directory",
          "type": "address"
        },
        {
          "components": [
            {
              "internalType": "address[]",
              "name": "allowList",
              "type": "address[]"
            }
          ],
          "internalType": "struct DeployMyDelegateData",
          "name": "_deployMyDelegateData",
          "type": "tuple"
        }
      ],
      "name": "initialize",
      "outputs": [],
      "stateMutability": "nonpayable",
      "type": "function"
    },
    {
      "inputs": [
        {
          "components": [
            {
              "internalType": "contract IJBPaymentTerminal",
              "name": "terminal",
              "type": "address"
            },
            {
              "internalType": "address",
              "name": "payer",
              "type": "address"
            },
            {
              "components": [
                {
                  "internalType": "address",
                  "name": "token",
                  "type": "address"
                },
                {
                  "internalType": "uint256",
                  "name": "value",
                  "type": "uint256"
                },
                {
                  "internalType": "uint256",
                  "name": "decimals",
                  "type": "uint256"
                },
                {
                  "internalType": "uint256",
                  "name": "currency",
                  "type": "uint256"
                }
              ],
              "internalType": "struct JBTokenAmount",
              "name": "amount",
              "type": "tuple"
            },
            {
              "internalType": "uint256",
              "name": "projectId",
              "type": "uint256"
            },
            {
              "internalType": "uint256",
              "name": "currentFundingCycleConfiguration",
              "type": "uint256"
            },
            {
              "internalType": "address",
              "name": "beneficiary",
              "type": "address"
            },
            {
              "internalType": "uint256",
              "name": "weight",
              "type": "uint256"
            },
            {
              "internalType": "uint256",
              "name": "reservedRate",
              "type": "uint256"
            },
            {
              "internalType": "string",
              "name": "memo",
              "type": "string"
            },
            {
              "internalType": "bytes",
              "name": "metadata",
              "type": "bytes"
            }
          ],
          "internalType": "struct JBPayParamsData",
          "name": "_data",
          "type": "tuple"
        }
      ],
      "name": "payParams",
      "outputs": [
        {
          "internalType": "uint256",
          "name": "weight",
          "type": "uint256"
        },
        {
          "internalType": "string",
          "name": "memo",
          "type": "string"
        },
        {
          "components": [
            {
              "internalType": "contract IJBPayDelegate",
              "name": "delegate",
              "type": "address"
            },
            {
              "internalType": "uint256",
              "name": "amount",
              "type": "uint256"
            }
          ],
          "internalType": "struct JBPayDelegateAllocation[]",
          "name": "delegateAllocations",
          "type": "tuple[]"
        }
      ],
      "stateMutability": "nonpayable",
      "type": "function"
    },
    {
      "inputs": [
        {
          "internalType": "address",
          "name": "",
          "type": "address"
        }
      ],
      "name": "paymentFromAddressIsAllowed",
      "outputs": [
        {
          "internalType": "bool",
          "name": "",
          "type": "bool"
        }
      ],
      "stateMutability": "view",
      "type": "function"
    },
    {
      "inputs": [],
      "name": "projectId",
      "outputs": [
        {
          "internalType": "uint256",
          "name": "",
          "type": "uint256"
        }
      ],
      "stateMutability": "view",
      "type": "function"
    },
    {
      "inputs": [
        {
          "components": [
            {
              "internalType": "contract IJBPaymentTerminal",
              "name": "terminal",
              "type": "address"
            },
            {
              "internalType": "address",
              "name": "holder",
              "type": "address"
            },
            {
              "internalType": "uint256",
              "name": "projectId",
              "type": "uint256"
            },
            {
              "internalType": "uint256",
              "name": "currentFundingCycleConfiguration",
              "type": "uint256"
            },
            {
              "internalType": "uint256",
              "name": "tokenCount",
              "type": "uint256"
            },
            {
              "internalType": "uint256",
              "name": "totalSupply",
              "type": "uint256"
            },
            {
              "internalType": "uint256",
              "name": "overflow",
              "type": "uint256"
            },
            {
              "components": [
                {
                  "internalType": "address",
                  "name": "token",
                  "type": "address"
                },
                {
                  "internalType": "uint256",
                  "name": "value",
                  "type": "uint256"
                },
                {
                  "internalType": "uint256",
                  "name": "decimals",
                  "type": "uint256"
                },
                {
                  "internalType": "uint256",
                  "name": "currency",
                  "type": "uint256"
                }
              ],
              "internalType": "struct JBTokenAmount",
              "name": "reclaimAmount",
              "type": "tuple"
            },
            {
              "internalType": "bool",
              "name": "useTotalOverflow",
              "type": "bool"
            },
            {
              "internalType": "uint256",
              "name": "redemptionRate",
              "type": "uint256"
            },
            {
              "internalType": "string",
              "name": "memo",
              "type": "string"
            },
            {
              "internalType": "bytes",
              "name": "metadata",
              "type": "bytes"
            }
          ],
          "internalType": "struct JBRedeemParamsData",
          "name": "_data",
          "type": "tuple"
        }
      ],
      "name": "redeemParams",
      "outputs": [
        {
          "internalType": "uint256",
          "name": "reclaimAmount",
          "type": "uint256"
        },
        {
          "internalType": "string",
          "name": "memo",
          "type": "string"
        },
        {
          "components": [
            {
              "internalType": "contract IJBRedemptionDelegate",
              "name": "delegate",
              "type": "address"
            },
            {
              "internalType": "uint256",
              "name": "amount",
              "type": "uint256"
            }
          ],
          "internalType": "struct JBRedemptionDelegateAllocation[]",
          "name": "delegateAllocations",
          "type": "tuple[]"
        }
      ],
      "stateMutability": "view",
      "type": "function"
    },
    {
      "inputs": [
        {
          "internalType": "bytes4",
          "name": "_interfaceId",
          "type": "bytes4"
        }
      ],
      "name": "supportsInterface",
      "outputs": [
        {
          "internalType": "bool",
          "name": "",
          "type": "bool"
        }
      ],
      "stateMutability": "view",
      "type": "function"
    }
  ],
  "bytecode": {
    "object": "0x60806040523480156200001157600080fd5b5060405162000eeb38038062000eeb833981016040819052620000349162000218565b6002879055600386905560048590556005849055600683905560078290556008805460ff191682151517905585871180159062000075575060045460035411155b801562000086575060045460025411155b80156200009557508260055411155b8015620000a457508160065411155b8015620000b357508160055411155b6200012f5760405162461bcd60e51b8152602060048201526053602482015260008051602062000ecb833981519152604482015260008051602062000eab83398151915260648201527f6c617267657220636f6e7469627574696f6e7300000000000000000000000000608482015260a4015b60405180910390fd5b6008805460ff191660011790556003546002541115801562000155575060045460035411155b801562000166575060045460025411155b80156200017557508260055410155b80156200018457508160065410155b80156200019357508160055410155b6200020b5760405162461bcd60e51b8152602060048201526054602482015260008051602062000ecb833981519152604482015260008051602062000eab83398151915260648201527f736d616c6c657220636f6e7469627574696f6e73000000000000000000000000608482015260a40162000126565b505050505050506200027f565b600080600080600080600060e0888a0312156200023457600080fd5b875196506020880151955060408801519450606088015193506080880151925060a0880151915060c088015180151581146200026f57600080fd5b8091505092959891949750929550565b610c1c806200028f6000396000f3fe6080604052600436106100915760003560e01c8063c41c2f2411610059578063c41c2f2414610153578063cbcd29bd1461018b578063d46cf171146101a1578063da9ee8b7146101c1578063fd8f145b146101d457600080fd5b806301ffc9a7146100965780632b13c58f146100cb5780633144e102146100e05780633fafa12714610100578063a51cfd1814610124575b600080fd5b3480156100a257600080fd5b506100b66100b13660046107c1565b610204565b60405190151581526020015b60405180910390f35b6100de6100d936600461080b565b610256565b005b3480156100ec57600080fd5b506100de6100fb3660046108cd565b610321565b34801561010c57600080fd5b5061011660005481565b6040519081526020016100c2565b34801561013057600080fd5b5061014461013f36600461080b565b6103b8565b6040516100c293929190610a12565b34801561015f57600080fd5b50600154610173906001600160a01b031681565b6040516001600160a01b0390911681526020016100c2565b34801561019757600080fd5b5061011660095481565b3480156101ad57600080fd5b506101446101bc366004610a84565b610537565b6100de6101cf366004610ac0565b610650565b3480156101e057600080fd5b506100b66101ef366004610afc565b600a6020526000908152604090205460ff1681565b60006001600160e01b031982166371700c6960e01b148061023557506001600160e01b0319821663da9ee8b760e01b145b8061025057506001600160e01b03198216632b13c58f60e01b145b92915050565b341515806102d85750600154600054604051636e49181f60e01b815260048101919091523360248201526001600160a01b0390911690636e49181f90604401602060405180830381865afa1580156102b2573d6000803e3d6000fd5b505050506040513d601f19601f820116820180604052508101906102d69190610b19565b155b806102e95750600054816020013514155b1561031e5760405163dbd1cb8760e01b8152336004820152602082013560248201523460448201526064015b60405180910390fd5b50565b6000541561032e57600080fd5b6000838155600180546001600160a01b0319166001600160a01b038516179055815151905b818110156103b1576001600a60008560000151848151811061037757610377610b3b565b6020908102919091018101516001600160a01b03168252810191909152604001600020805460ff1916911515919091179055600101610353565b5050505050565b6004546101008201359060609081906103d19084610b51565b600954101561045d5760405162461bcd60e51b815260206004820152604c60248201527f596f752061726520756e61626c6520746f2072656465656d20617320796f752060448201527f6d6179206566666563746976656c792068617665206f7665722061203130302560648201526b2072656465656d207261746560a01b608482015260a401610315565b61046b6101a0850185610b73565b8080601f016020809104026020016040519081016040528093929190818152602001838380828437600092019190915250929450600192506104ab915050565b6040519080825280602002602001820160405280156104f057816020015b60408051808201909152600080825260208201528152602001906001900390816104c95790505b5090506040518060400160405280306001600160a01b0316815260200160008152508160008151811061052557610525610b3b565b60200260200101819052509193909250565b6000606080600061054c856101200135610777565b9050606461055f82610120880135610bc1565b6105699190610b51565b9350610579610160860186610b73565b8080601f016020809104026020016040519081016040528093929190818152602001838380828437600092019190915250929550600192506105b9915050565b6040519080825280602002602001820160405280156105fe57816020015b60408051808201909152600080825260208201528152602001906001900390816105d75790505b5091506040518060400160405280306001600160a01b0316815260200160008152508260008151811061063357610633610b3b565b602090810291909101015250610120909301356009559092909190565b341515806106d25750600154600054604051636e49181f60e01b815260048101919091523360248201526001600160a01b0390911690636e49181f90604401602060405180830381865afa1580156106ac573d6000803e3d6000fd5b505050506040513d601f19601f820116820180604052508101906106d09190610b19565b155b806106e35750600054816020013514155b156107135760405163992405f760e01b815233600482015260208201356024820152346044820152606401610315565b600a60006107246020840184610afc565b6001600160a01b0316815260208101919091526040016000205460ff1661031e576107526020820182610afc565b60405163a105efc760e01b81526001600160a01b039091166004820152602401610315565b6008805460ff191660011790556000600754821161079757505060045490565b60065482116107a857505060035490565b60055482116107b957505060025490565b506064919050565b6000602082840312156107d357600080fd5b81356001600160e01b0319811681146107eb57600080fd5b9392505050565b60006101e0828403121561080557600080fd5b50919050565b60006020828403121561081d57600080fd5b813567ffffffffffffffff81111561083457600080fd5b610840848285016107f2565b949350505050565b6001600160a01b038116811461031e57600080fd5b634e487b7160e01b600052604160045260246000fd5b6040516020810167ffffffffffffffff811182821017156108965761089661085d565b60405290565b604051601f8201601f1916810167ffffffffffffffff811182821017156108c5576108c561085d565b604052919050565b6000806000606084860312156108e257600080fd5b833592506020808501356108f581610848565b9250604085013567ffffffffffffffff8082111561091257600080fd5b818701915082828903121561092657600080fd5b61092e610873565b82358281111561093d57600080fd5b80840193505088601f84011261095257600080fd5b8235828111156109645761096461085d565b8060051b925061097585840161089c565b818152928401850192858101908b85111561098f57600080fd5b948601945b848610156109b957853592506109a983610848565b8282529486019490860190610994565b8352509699959850965093945050505050565b6000815180845260005b818110156109f2576020818501810151868301820152016109d6565b506000602082860101526020601f19601f83011685010191505092915050565b83815260006020606081840152610a2c60608401866109cc565b83810360408581019190915285518083528387019284019060005b81811015610a7557845180516001600160a01b03168452860151868401529385019391830191600101610a47565b50909998505050505050505050565b600060208284031215610a9657600080fd5b813567ffffffffffffffff811115610aad57600080fd5b82016101a081850312156107eb57600080fd5b600060208284031215610ad257600080fd5b813567ffffffffffffffff811115610ae957600080fd5b820161020081850312156107eb57600080fd5b600060208284031215610b0e57600080fd5b81356107eb81610848565b600060208284031215610b2b57600080fd5b815180151581146107eb57600080fd5b634e487b7160e01b600052603260045260246000fd5b600082610b6e57634e487b7160e01b600052601260045260246000fd5b500490565b6000808335601e19843603018112610b8a57600080fd5b83018035915067ffffffffffffffff821115610ba557600080fd5b602001915036819003821315610bba57600080fd5b9250929050565b808202811582820484141761025057634e487b7160e01b600052601160045260246000fdfea2646970667358221220440288aaf84b78bb612fe237173eb4671661de2462f26611e17d72ef7742f45764736f6c63430008140033616c696420696620796f752077616e7420746f20696e63656e746976697a6520536f7272792c205468697320626f6e7573206f72646572206973206e6f742076",
    "linkReferences": {}
  },
  "methodIdentifiers": {
    "SafetyNumber()": "cbcd29bd",
    "didPay((address,uint256,uint256,(address,uint256,uint256,uint256),(address,uint256,uint256,uint256),uint256,address,bool,string,bytes))": "da9ee8b7",
    "didRedeem((address,uint256,uint256,uint256,(address,uint256,uint256,uint256),(address,uint256,uint256,uint256),address,string,bytes))": "2b13c58f",
    "directory()": "c41c2f24",
    "initialize(uint256,address,(address[]))": "3144e102",
    "payParams((address,address,(address,uint256,uint256,uint256),uint256,uint256,address,uint256,uint256,string,bytes))": "d46cf171",
    "paymentFromAddressIsAllowed(address)": "fd8f145b",
    "projectId()": "3fafa127",
    "redeemParams((address,address,uint256,uint256,uint256,uint256,uint256,(address,uint256,uint256,uint256),bool,uint256,string,bytes))": "a51cfd18",
    "supportsInterface(bytes4)": "01ffc9a7"
  },
  "id": 61
}